{
	"contracts/contract/LinkToken.sol": {
		"LinkToken": {
			"abi": [
				{
					"inputs": [],
					"stateMutability": "nonpayable",
					"type": "constructor"
				},
				{
					"anonymous": false,
					"inputs": [
						{
							"indexed": true,
							"internalType": "address",
							"name": "owner",
							"type": "address"
						},
						{
							"indexed": true,
							"internalType": "address",
							"name": "spender",
							"type": "address"
						},
						{
							"indexed": false,
							"internalType": "uint256",
							"name": "value",
							"type": "uint256"
						}
					],
					"name": "Approval",
					"type": "event"
				},
				{
					"anonymous": false,
					"inputs": [
						{
							"indexed": true,
							"internalType": "address",
							"name": "from",
							"type": "address"
						},
						{
							"indexed": true,
							"internalType": "address",
							"name": "to",
							"type": "address"
						},
						{
							"indexed": false,
							"internalType": "uint256",
							"name": "value",
							"type": "uint256"
						},
						{
							"indexed": false,
							"internalType": "bytes",
							"name": "data",
							"type": "bytes"
						}
					],
					"name": "Transfer",
					"type": "event"
				},
				{
					"anonymous": false,
					"inputs": [
						{
							"indexed": true,
							"internalType": "address",
							"name": "from",
							"type": "address"
						},
						{
							"indexed": true,
							"internalType": "address",
							"name": "to",
							"type": "address"
						},
						{
							"indexed": false,
							"internalType": "uint256",
							"name": "value",
							"type": "uint256"
						}
					],
					"name": "Transfer",
					"type": "event"
				},
				{
					"inputs": [
						{
							"internalType": "address",
							"name": "owner",
							"type": "address"
						},
						{
							"internalType": "address",
							"name": "spender",
							"type": "address"
						}
					],
					"name": "allowance",
					"outputs": [
						{
							"internalType": "uint256",
							"name": "",
							"type": "uint256"
						}
					],
					"stateMutability": "view",
					"type": "function"
				},
				{
					"inputs": [
						{
							"internalType": "address",
							"name": "spender",
							"type": "address"
						},
						{
							"internalType": "uint256",
							"name": "amount",
							"type": "uint256"
						}
					],
					"name": "approve",
					"outputs": [
						{
							"internalType": "bool",
							"name": "",
							"type": "bool"
						}
					],
					"stateMutability": "nonpayable",
					"type": "function"
				},
				{
					"inputs": [
						{
							"internalType": "address",
							"name": "account",
							"type": "address"
						}
					],
					"name": "balanceOf",
					"outputs": [
						{
							"internalType": "uint256",
							"name": "",
							"type": "uint256"
						}
					],
					"stateMutability": "view",
					"type": "function"
				},
				{
					"inputs": [],
					"name": "decimals",
					"outputs": [
						{
							"internalType": "uint8",
							"name": "",
							"type": "uint8"
						}
					],
					"stateMutability": "view",
					"type": "function"
				},
				{
					"inputs": [
						{
							"internalType": "address",
							"name": "spender",
							"type": "address"
						},
						{
							"internalType": "uint256",
							"name": "subtractedValue",
							"type": "uint256"
						}
					],
					"name": "decreaseAllowance",
					"outputs": [
						{
							"internalType": "bool",
							"name": "",
							"type": "bool"
						}
					],
					"stateMutability": "nonpayable",
					"type": "function"
				},
				{
					"inputs": [
						{
							"internalType": "address",
							"name": "spender",
							"type": "address"
						},
						{
							"internalType": "uint256",
							"name": "subtractedValue",
							"type": "uint256"
						}
					],
					"name": "decreaseApproval",
					"outputs": [
						{
							"internalType": "bool",
							"name": "",
							"type": "bool"
						}
					],
					"stateMutability": "nonpayable",
					"type": "function"
				},
				{
					"inputs": [
						{
							"internalType": "address",
							"name": "spender",
							"type": "address"
						},
						{
							"internalType": "uint256",
							"name": "addedValue",
							"type": "uint256"
						}
					],
					"name": "increaseAllowance",
					"outputs": [
						{
							"internalType": "bool",
							"name": "",
							"type": "bool"
						}
					],
					"stateMutability": "nonpayable",
					"type": "function"
				},
				{
					"inputs": [
						{
							"internalType": "address",
							"name": "spender",
							"type": "address"
						},
						{
							"internalType": "uint256",
							"name": "addedValue",
							"type": "uint256"
						}
					],
					"name": "increaseApproval",
					"outputs": [
						{
							"internalType": "bool",
							"name": "",
							"type": "bool"
						}
					],
					"stateMutability": "nonpayable",
					"type": "function"
				},
				{
					"inputs": [],
					"name": "name",
					"outputs": [
						{
							"internalType": "string",
							"name": "",
							"type": "string"
						}
					],
					"stateMutability": "view",
					"type": "function"
				},
				{
					"inputs": [],
					"name": "symbol",
					"outputs": [
						{
							"internalType": "string",
							"name": "",
							"type": "string"
						}
					],
					"stateMutability": "view",
					"type": "function"
				},
				{
					"inputs": [],
					"name": "totalSupply",
					"outputs": [
						{
							"internalType": "uint256",
							"name": "",
							"type": "uint256"
						}
					],
					"stateMutability": "view",
					"type": "function"
				},
				{
					"inputs": [
						{
							"internalType": "address",
							"name": "recipient",
							"type": "address"
						},
						{
							"internalType": "uint256",
							"name": "amount",
							"type": "uint256"
						}
					],
					"name": "transfer",
					"outputs": [
						{
							"internalType": "bool",
							"name": "",
							"type": "bool"
						}
					],
					"stateMutability": "nonpayable",
					"type": "function"
				},
				{
					"inputs": [
						{
							"internalType": "address",
							"name": "to",
							"type": "address"
						},
						{
							"internalType": "uint256",
							"name": "value",
							"type": "uint256"
						},
						{
							"internalType": "bytes",
							"name": "data",
							"type": "bytes"
						}
					],
					"name": "transferAndCall",
					"outputs": [
						{
							"internalType": "bool",
							"name": "success",
							"type": "bool"
						}
					],
					"stateMutability": "nonpayable",
					"type": "function"
				},
				{
					"inputs": [
						{
							"internalType": "address",
							"name": "sender",
							"type": "address"
						},
						{
							"internalType": "address",
							"name": "recipient",
							"type": "address"
						},
						{
							"internalType": "uint256",
							"name": "amount",
							"type": "uint256"
						}
					],
					"name": "transferFrom",
					"outputs": [
						{
							"internalType": "bool",
							"name": "",
							"type": "bool"
						}
					],
					"stateMutability": "nonpayable",
					"type": "function"
				},
				{
					"inputs": [],
					"name": "typeAndVersion",
					"outputs": [
						{
							"internalType": "string",
							"name": "",
							"type": "string"
						}
					],
					"stateMutability": "pure",
					"type": "function"
				}
			],
			"devdoc": {
				"details": "LinkToken, an ERC20/ERC677 Chainlink token with 1 billion supply",
				"kind": "dev",
				"methods": {
					"allowance(address,address)": {
						"details": "See {IERC20-allowance}."
					},
					"approve(address,uint256)": {
						"details": "See {IERC20-approve}. Requirements: - `spender` cannot be the zero address."
					},
					"balanceOf(address)": {
						"details": "See {IERC20-balanceOf}."
					},
					"decimals()": {
						"details": "Returns the number of decimals used to get its user representation. For example, if `decimals` equals `2`, a balance of `505` tokens should be displayed to a user as `5,05` (`505 / 10 ** 2`). Tokens usually opt for a value of 18, imitating the relationship between Ether and Wei. This is the value {ERC20} uses, unless {_setupDecimals} is called. NOTE: This information is only used for _display_ purposes: it in no way affects any of the arithmetic of the contract, including {IERC20-balanceOf} and {IERC20-transfer}."
					},
					"decreaseAllowance(address,uint256)": {
						"details": "Atomically decreases the allowance granted to `spender` by the caller. This is an alternative to {approve} that can be used as a mitigation for problems described in {IERC20-approve}. Emits an {Approval} event indicating the updated allowance. Requirements: - `spender` cannot be the zero address. - `spender` must have allowance for the caller of at least `subtractedValue`."
					},
					"decreaseApproval(address,uint256)": {
						"details": "Atomically decreases the allowance granted to `spender` by the caller. This is an alternative to {approve} that can be used as a mitigation for problems described in {IERC20-approve}. Emits an {Approval} event indicating the updated allowance. Requirements: - `spender` cannot be the zero address. - `spender` must have allowance for the caller of at least `subtractedValue`."
					},
					"increaseAllowance(address,uint256)": {
						"details": "Atomically increases the allowance granted to `spender` by the caller. This is an alternative to {approve} that can be used as a mitigation for problems described in {IERC20-approve}. Emits an {Approval} event indicating the updated allowance. Requirements: - `spender` cannot be the zero address."
					},
					"increaseApproval(address,uint256)": {
						"details": "Atomically increases the allowance granted to `spender` by the caller. This is an alternative to {approve} that can be used as a mitigation for problems described in {IERC20-approve}. Emits an {Approval} event indicating the updated allowance. Requirements: - `spender` cannot be the zero address."
					},
					"name()": {
						"details": "Returns the name of the token."
					},
					"symbol()": {
						"details": "Returns the symbol of the token, usually a shorter version of the name."
					},
					"totalSupply()": {
						"details": "See {IERC20-totalSupply}."
					},
					"transfer(address,uint256)": {
						"details": "See {IERC20-transfer}. Requirements: - `recipient` cannot be the zero address. - the caller must have a balance of at least `amount`."
					},
					"transferAndCall(address,uint256,bytes)": {
						"details": "transfer token to a contract address with additional data if the recipient is a contact.",
						"params": {
							"data": "The extra data to be passed to the receiving contract.",
							"to": "The address to transfer to.",
							"value": "The amount to be transferred."
						}
					},
					"transferFrom(address,address,uint256)": {
						"details": "See {IERC20-transferFrom}. Emits an {Approval} event indicating the updated allowance. This is not required by the EIP. See the note at the beginning of {ERC20}. Requirements: - `sender` and `recipient` cannot be the zero address. - `sender` must have a balance of at least `amount`. - the caller must have allowance for ``sender``'s tokens of at least `amount`."
					},
					"typeAndVersion()": {
						"details": "Returns type and version for the contract. The returned string has the following format: <contract name><SPACE><semver> Try to keep its length less than 32 to take up less contract space."
					}
				},
				"version": 1
			},
			"evm": {
				"assembly": "    /* \"contracts/contract/LinkToken.sol\":226:2122  contract LinkToken is ITypeAndVersion, LinkERC20, ERC677 {... */\n  mstore(0x40, 0x80)\n    /* \"contracts/contract/LinkToken.sol\":430:503  constructor()... */\n  callvalue\n  dup1\n  iszero\n  tag_1\n  jumpi\n  0x00\n  dup1\n  revert\ntag_1:\n  pop\n    /* \"contracts/contract/LinkToken.sol\":454:458  NAME */\n  mload(0x40)\n  dup1\n  0x40\n  add\n  0x40\n  mstore\n  dup1\n  0x0f\n  dup2\n  mstore\n  0x20\n  add\n  0x436861696e4c696e6b20546f6b656e0000000000000000000000000000000000\n  dup2\n  mstore\n  pop\n    /* \"contracts/contract/LinkToken.sol\":460:466  SYMBOL */\n  mload(0x40)\n  dup1\n  0x40\n  add\n  0x40\n  mstore\n  dup1\n  0x04\n  dup2\n  mstore\n  0x20\n  add\n  0x4c494e4b00000000000000000000000000000000000000000000000000000000\n  dup2\n  mstore\n  pop\n    /* \"contracts/vendor/contracts/token/ERC20.sol\":2021:2026  name_ */\n  dup2\n    /* \"contracts/vendor/contracts/token/ERC20.sol\":2013:2018  _name */\n  0x03\n    /* \"contracts/vendor/contracts/token/ERC20.sol\":2013:2026  _name = name_ */\n  swap1\n  dup1\n  mload\n  swap1\n  0x20\n  add\n  swap1\n  tag_5\n  swap3\n  swap2\n  swap1\n  tag_6\n  jump\t// in\ntag_5:\n  pop\n    /* \"contracts/vendor/contracts/token/ERC20.sol\":2046:2053  symbol_ */\n  dup1\n    /* \"contracts/vendor/contracts/token/ERC20.sol\":2036:2043  _symbol */\n  0x04\n    /* \"contracts/vendor/contracts/token/ERC20.sol\":2036:2053  _symbol = symbol_ */\n  swap1\n  dup1\n  mload\n  swap1\n  0x20\n  add\n  swap1\n  tag_7\n  swap3\n  swap2\n  swap1\n  tag_6\n  jump\t// in\ntag_7:\n  pop\n    /* \"contracts/vendor/contracts/token/ERC20.sol\":2075:2077  18 */\n  0x12\n    /* \"contracts/vendor/contracts/token/ERC20.sol\":2063:2072  _decimals */\n  0x05\n  0x00\n    /* \"contracts/vendor/contracts/token/ERC20.sol\":2063:2077  _decimals = 18 */\n  0x0100\n  exp\n  dup2\n  sload\n  dup2\n  0xff\n  mul\n  not\n  and\n  swap1\n  dup4\n  0xff\n  and\n  mul\n  or\n  swap1\n  sstore\n  pop\n    /* \"contracts/vendor/contracts/token/ERC20.sol\":1939:2084  constructor (string memory name_, string memory symbol_) public {... */\n  pop\n  pop\n    /* \"contracts/contract/LinkToken.sol\":487:498  _onCreate() */\n  tag_9\n    /* \"contracts/contract/LinkToken.sol\":487:496  _onCreate */\n  shl(0x20, tag_10)\n    /* \"contracts/contract/LinkToken.sol\":487:498  _onCreate() */\n  0x20\n  shr\n  jump\t// in\ntag_9:\n    /* \"contracts/contract/LinkToken.sol\":226:2122  contract LinkToken is ITypeAndVersion, LinkERC20, ERC677 {... */\n  jump(tag_11)\n    /* \"contracts/contract/LinkToken.sol\":1111:1201  function _onCreate()... */\ntag_10:\n    /* \"contracts/contract/LinkToken.sol\":1165:1196  _mint(msg.sender, TOTAL_SUPPLY) */\n  tag_13\n    /* \"contracts/contract/LinkToken.sol\":1171:1181  msg.sender */\n  caller\n    /* \"contracts/contract/LinkToken.sol\":324:330  10**27 */\n  0x033b2e3c9fd0803ce8000000\n    /* \"contracts/contract/LinkToken.sol\":1165:1170  _mint */\n  shl(0x20, tag_14)\n    /* \"contracts/contract/LinkToken.sol\":1165:1196  _mint(msg.sender, TOTAL_SUPPLY) */\n  0x20\n  shr\n  jump\t// in\ntag_13:\n    /* \"contracts/contract/LinkToken.sol\":1111:1201  function _onCreate()... */\n  jump\t// out\n    /* \"contracts/vendor/contracts/token/ERC20.sol\":7813:8183  function _mint(address account, uint256 amount) internal virtual {... */\ntag_14:\n    /* \"contracts/vendor/contracts/token/ERC20.sol\":7915:7916  0 */\n  0x00\n    /* \"contracts/vendor/contracts/token/ERC20.sol\":7896:7917  account != address(0) */\n  0xffffffffffffffffffffffffffffffffffffffff\n  and\n    /* \"contracts/vendor/contracts/token/ERC20.sol\":7896:7903  account */\n  dup3\n    /* \"contracts/vendor/contracts/token/ERC20.sol\":7896:7917  account != address(0) */\n  0xffffffffffffffffffffffffffffffffffffffff\n  and\n  eq\n  iszero\n    /* \"contracts/vendor/contracts/token/ERC20.sol\":7888:7953  require(account != address(0), \"ERC20: mint to the zero address\") */\n  tag_16\n  jumpi\n  mload(0x40)\n  0x08c379a000000000000000000000000000000000000000000000000000000000\n  dup2\n  mstore\n  0x04\n  add\n  dup1\n  dup1\n  0x20\n  add\n  dup3\n  dup2\n  sub\n  dup3\n  mstore\n  0x1f\n  dup2\n  mstore\n  0x20\n  add\n  dup1\n  0x45524332303a206d696e7420746f20746865207a65726f206164647265737300\n  dup2\n  mstore\n  pop\n  0x20\n  add\n  swap2\n  pop\n  pop\n  mload(0x40)\n  dup1\n  swap2\n  sub\n  swap1\n  revert\ntag_16:\n    /* \"contracts/vendor/contracts/token/ERC20.sol\":7964:8013  _beforeTokenTransfer(address(0), account, amount) */\n  tag_17\n    /* \"contracts/vendor/contracts/token/ERC20.sol\":7993:7994  0 */\n  0x00\n    /* \"contracts/vendor/contracts/token/ERC20.sol\":7997:8004  account */\n  dup4\n    /* \"contracts/vendor/contracts/token/ERC20.sol\":8006:8012  amount */\n  dup4\n    /* \"contracts/vendor/contracts/token/ERC20.sol\":7964:7984  _beforeTokenTransfer */\n  shl(0x20, tag_18)\n    /* \"contracts/vendor/contracts/token/ERC20.sol\":7964:8013  _beforeTokenTransfer(address(0), account, amount) */\n  0x20\n  shr\n  jump\t// in\ntag_17:\n    /* \"contracts/vendor/contracts/token/ERC20.sol\":8039:8063  _totalSupply.add(amount) */\n  tag_19\n    /* \"contracts/vendor/contracts/token/ERC20.sol\":8056:8062  amount */\n  dup2\n    /* \"contracts/vendor/contracts/token/ERC20.sol\":8039:8051  _totalSupply */\n  sload(0x02)\n    /* \"contracts/vendor/contracts/token/ERC20.sol\":8039:8055  _totalSupply.add */\n  or(tag_0_76, shl(0x20, tag_20))\n  swap1\n    /* \"contracts/vendor/contracts/token/ERC20.sol\":8039:8063  _totalSupply.add(amount) */\n  swap2\n  swap1\n  0x20\n  shr\n  jump\t// in\ntag_19:\n    /* \"contracts/vendor/contracts/token/ERC20.sol\":8024:8036  _totalSupply */\n  0x02\n    /* \"contracts/vendor/contracts/token/ERC20.sol\":8024:8063  _totalSupply = _totalSupply.add(amount) */\n  dup2\n  swap1\n  sstore\n  pop\n    /* \"contracts/vendor/contracts/token/ERC20.sol\":8094:8124  _balances[account].add(amount) */\n  tag_21\n    /* \"contracts/vendor/contracts/token/ERC20.sol\":8117:8123  amount */\n  dup2\n    /* \"contracts/vendor/contracts/token/ERC20.sol\":8094:8103  _balances */\n  0x00\n    /* \"contracts/vendor/contracts/token/ERC20.sol\":8094:8112  _balances[account] */\n  dup1\n    /* \"contracts/vendor/contracts/token/ERC20.sol\":8104:8111  account */\n  dup6\n    /* \"contracts/vendor/contracts/token/ERC20.sol\":8094:8112  _balances[account] */\n  0xffffffffffffffffffffffffffffffffffffffff\n  and\n  0xffffffffffffffffffffffffffffffffffffffff\n  and\n  dup2\n  mstore\n  0x20\n  add\n  swap1\n  dup2\n  mstore\n  0x20\n  add\n  0x00\n  keccak256\n  sload\n    /* \"contracts/vendor/contracts/token/ERC20.sol\":8094:8116  _balances[account].add */\n  or(tag_0_76, shl(0x20, tag_20))\n  swap1\n    /* \"contracts/vendor/contracts/token/ERC20.sol\":8094:8124  _balances[account].add(amount) */\n  swap2\n  swap1\n  0x20\n  shr\n  jump\t// in\ntag_21:\n    /* \"contracts/vendor/contracts/token/ERC20.sol\":8073:8082  _balances */\n  0x00\n    /* \"contracts/vendor/contracts/token/ERC20.sol\":8073:8091  _balances[account] */\n  dup1\n    /* \"contracts/vendor/contracts/token/ERC20.sol\":8083:8090  account */\n  dup5\n    /* \"contracts/vendor/contracts/token/ERC20.sol\":8073:8091  _balances[account] */\n  0xffffffffffffffffffffffffffffffffffffffff\n  and\n  0xffffffffffffffffffffffffffffffffffffffff\n  and\n  dup2\n  mstore\n  0x20\n  add\n  swap1\n  dup2\n  mstore\n  0x20\n  add\n  0x00\n  keccak256\n    /* \"contracts/vendor/contracts/token/ERC20.sol\":8073:8124  _balances[account] = _balances[account].add(amount) */\n  dup2\n  swap1\n  sstore\n  pop\n    /* \"contracts/vendor/contracts/token/ERC20.sol\":8160:8167  account */\n  dup2\n    /* \"contracts/vendor/contracts/token/ERC20.sol\":8139:8176  Transfer(address(0), account, amount) */\n  0xffffffffffffffffffffffffffffffffffffffff\n  and\n    /* \"contracts/vendor/contracts/token/ERC20.sol\":8156:8157  0 */\n  0x00\n    /* \"contracts/vendor/contracts/token/ERC20.sol\":8139:8176  Transfer(address(0), account, amount) */\n  0xffffffffffffffffffffffffffffffffffffffff\n  and\n  0xddf252ad1be2c89b69c2b068fc378daa952ba7f163c4a11628f55a4df523b3ef\n    /* \"contracts/vendor/contracts/token/ERC20.sol\":8169:8175  amount */\n  dup4\n    /* \"contracts/vendor/contracts/token/ERC20.sol\":8139:8176  Transfer(address(0), account, amount) */\n  mload(0x40)\n  dup1\n  dup3\n  dup2\n  mstore\n  0x20\n  add\n  swap2\n  pop\n  pop\n  mload(0x40)\n  dup1\n  swap2\n  sub\n  swap1\n  log3\n    /* \"contracts/vendor/contracts/token/ERC20.sol\":7813:8183  function _mint(address account, uint256 amount) internal virtual {... */\n  pop\n  pop\n  jump\t// out\n    /* \"contracts/vendor/contracts/token/ERC20.sol\":10682:10774  function _beforeTokenTransfer(address from, address to, uint256 amount) internal virtual { } */\ntag_18:\n  pop\n  pop\n  pop\n  jump\t// out\n    /* \"contracts/vendor/contracts/token/SafeMath.sol\":2690:2865  function add(uint256 a, uint256 b) internal pure returns (uint256) {... */\ntag_20:\n    /* \"contracts/vendor/contracts/token/SafeMath.sol\":2748:2755  uint256 */\n  0x00\n    /* \"contracts/vendor/contracts/token/SafeMath.sol\":2767:2776  uint256 c */\n  dup1\n    /* \"contracts/vendor/contracts/token/SafeMath.sol\":2783:2784  b */\n  dup3\n    /* \"contracts/vendor/contracts/token/SafeMath.sol\":2779:2780  a */\n  dup5\n    /* \"contracts/vendor/contracts/token/SafeMath.sol\":2779:2784  a + b */\n  add\n    /* \"contracts/vendor/contracts/token/SafeMath.sol\":2767:2784  uint256 c = a + b */\n  swap1\n  pop\n    /* \"contracts/vendor/contracts/token/SafeMath.sol\":2807:2808  a */\n  dup4\n    /* \"contracts/vendor/contracts/token/SafeMath.sol\":2802:2803  c */\n  dup2\n    /* \"contracts/vendor/contracts/token/SafeMath.sol\":2802:2808  c >= a */\n  lt\n  iszero\n    /* \"contracts/vendor/contracts/token/SafeMath.sol\":2794:2840  require(c >= a, \"SafeMath: addition overflow\") */\n  tag_24\n  jumpi\n  mload(0x40)\n  0x08c379a000000000000000000000000000000000000000000000000000000000\n  dup2\n  mstore\n  0x04\n  add\n  dup1\n  dup1\n  0x20\n  add\n  dup3\n  dup2\n  sub\n  dup3\n  mstore\n  0x1b\n  dup2\n  mstore\n  0x20\n  add\n  dup1\n  0x536166654d6174683a206164646974696f6e206f766572666c6f770000000000\n  dup2\n  mstore\n  pop\n  0x20\n  add\n  swap2\n  pop\n  pop\n  mload(0x40)\n  dup1\n  swap2\n  sub\n  swap1\n  revert\ntag_24:\n    /* \"contracts/vendor/contracts/token/SafeMath.sol\":2857:2858  c */\n  dup1\n    /* \"contracts/vendor/contracts/token/SafeMath.sol\":2850:2858  return c */\n  swap2\n  pop\n  pop\n    /* \"contracts/vendor/contracts/token/SafeMath.sol\":2690:2865  function add(uint256 a, uint256 b) internal pure returns (uint256) {... */\n  swap3\n  swap2\n  pop\n  pop\n  jump\t// out\n    /* \"contracts/contract/LinkToken.sol\":226:2122  contract LinkToken is ITypeAndVersion, LinkERC20, ERC677 {... */\ntag_6:\n  dup3\n  dup1\n  sload\n  0x01\n  dup2\n  0x01\n  and\n  iszero\n  0x0100\n  mul\n  sub\n  and\n  0x02\n  swap1\n  div\n  swap1\n  0x00\n  mstore\n  keccak256(0x00, 0x20)\n  swap1\n  0x1f\n  add\n  0x20\n  swap1\n  div\n  dup2\n  add\n  swap3\n  dup3\n  tag_26\n  jumpi\n  0x00\n  dup6\n  sstore\n  jump(tag_25)\ntag_26:\n  dup3\n  0x1f\n  lt\n  tag_27\n  jumpi\n  dup1\n  mload\n  not(0xff)\n  and\n  dup4\n  dup1\n  add\n  or\n  dup6\n  sstore\n  jump(tag_25)\ntag_27:\n  dup3\n  dup1\n  add\n  0x01\n  add\n  dup6\n  sstore\n  dup3\n  iszero\n  tag_25\n  jumpi\n  swap2\n  dup3\n  add\ntag_28:\n  dup3\n  dup2\n  gt\n  iszero\n  tag_29\n  jumpi\n  dup3\n  mload\n  dup3\n  sstore\n  swap2\n  0x20\n  add\n  swap2\n  swap1\n  0x01\n  add\n  swap1\n  jump(tag_28)\ntag_29:\ntag_25:\n  pop\n  swap1\n  pop\n  tag_30\n  swap2\n  swap1\n  tag_31\n  jump\t// in\ntag_30:\n  pop\n  swap1\n  jump\t// out\ntag_31:\ntag_32:\n  dup1\n  dup3\n  gt\n  iszero\n  tag_33\n  jumpi\n  0x00\n  dup2\n  0x00\n  swap1\n  sstore\n  pop\n  0x01\n  add\n  jump(tag_32)\ntag_33:\n  pop\n  swap1\n  jump\t// out\ntag_11:\n  dataSize(sub_0)\n  dup1\n  dataOffset(sub_0)\n  0x00\n  codecopy\n  0x00\n  return\nstop\n\nsub_0: assembly {\n        /* \"contracts/contract/LinkToken.sol\":226:2122  contract LinkToken is ITypeAndVersion, LinkERC20, ERC677 {... */\n      mstore(0x40, 0x80)\n      callvalue\n      dup1\n      iszero\n      tag_1\n      jumpi\n      0x00\n      dup1\n      revert\n    tag_1:\n      pop\n      jumpi(tag_2, lt(calldatasize, 0x04))\n      shr(0xe0, calldataload(0x00))\n      dup1\n      0x4000aea0\n      gt\n      tag_18\n      jumpi\n      dup1\n      0xa457c2d7\n      gt\n      tag_19\n      jumpi\n      dup1\n      0xa457c2d7\n      eq\n      tag_14\n      jumpi\n      dup1\n      0xa9059cbb\n      eq\n      tag_15\n      jumpi\n      dup1\n      0xd73dd623\n      eq\n      tag_16\n      jumpi\n      dup1\n      0xdd62ed3e\n      eq\n      tag_17\n      jumpi\n      jump(tag_2)\n    tag_19:\n      dup1\n      0x4000aea0\n      eq\n      tag_10\n      jumpi\n      dup1\n      0x66188463\n      eq\n      tag_11\n      jumpi\n      dup1\n      0x70a08231\n      eq\n      tag_12\n      jumpi\n      dup1\n      0x95d89b41\n      eq\n      tag_13\n      jumpi\n      jump(tag_2)\n    tag_18:\n      dup1\n      0x181f5a77\n      gt\n      tag_20\n      jumpi\n      dup1\n      0x181f5a77\n      eq\n      tag_6\n      jumpi\n      dup1\n      0x23b872dd\n      eq\n      tag_7\n      jumpi\n      dup1\n      0x313ce567\n      eq\n      tag_8\n      jumpi\n      dup1\n      0x39509351\n      eq\n      tag_9\n      jumpi\n      jump(tag_2)\n    tag_20:\n      dup1\n      0x06fdde03\n      eq\n      tag_3\n      jumpi\n      dup1\n      0x095ea7b3\n      eq\n      tag_4\n      jumpi\n      dup1\n      0x18160ddd\n      eq\n      tag_5\n      jumpi\n    tag_2:\n      0x00\n      dup1\n      revert\n        /* \"contracts/vendor/contracts/token/ERC20.sol\":2149:2238  function name() public view virtual returns (string memory) {... */\n    tag_3:\n      tag_21\n      tag_22\n      jump\t// in\n    tag_21:\n      mload(0x40)\n      dup1\n      dup1\n      0x20\n      add\n      dup3\n      dup2\n      sub\n      dup3\n      mstore\n      dup4\n      dup2\n      dup2\n      mload\n      dup2\n      mstore\n      0x20\n      add\n      swap2\n      pop\n      dup1\n      mload\n      swap1\n      0x20\n      add\n      swap1\n      dup1\n      dup4\n      dup4\n      0x00\n    tag_23:\n      dup4\n      dup2\n      lt\n      iszero\n      tag_25\n      jumpi\n      dup1\n      dup3\n      add\n      mload\n      dup2\n      dup5\n      add\n      mstore\n      0x20\n      dup2\n      add\n      swap1\n      pop\n      jump(tag_23)\n    tag_25:\n      pop\n      pop\n      pop\n      pop\n      swap1\n      pop\n      swap1\n      dup2\n      add\n      swap1\n      0x1f\n      and\n      dup1\n      iszero\n      tag_26\n      jumpi\n      dup1\n      dup3\n      sub\n      dup1\n      mload\n      0x01\n      dup4\n      0x20\n      sub\n      0x0100\n      exp\n      sub\n      not\n      and\n      dup2\n      mstore\n      0x20\n      add\n      swap2\n      pop\n    tag_26:\n      pop\n      swap3\n      pop\n      pop\n      pop\n      mload(0x40)\n      dup1\n      swap2\n      sub\n      swap1\n      return\n        /* \"contracts/vendor/contracts/token/ERC20.sol\":4225:4391  function approve(address spender, uint256 amount) public virtual override returns (bool) {... */\n    tag_4:\n      tag_27\n      0x04\n      dup1\n      calldatasize\n      sub\n      0x40\n      dup2\n      lt\n      iszero\n      tag_28\n      jumpi\n      0x00\n      dup1\n      revert\n    tag_28:\n      dup2\n      add\n      swap1\n      dup1\n      dup1\n      calldataload\n      0xffffffffffffffffffffffffffffffffffffffff\n      and\n      swap1\n      0x20\n      add\n      swap1\n      swap3\n      swap2\n      swap1\n      dup1\n      calldataload\n      swap1\n      0x20\n      add\n      swap1\n      swap3\n      swap2\n      swap1\n      pop\n      pop\n      pop\n      tag_29\n      jump\t// in\n    tag_27:\n      mload(0x40)\n      dup1\n      dup3\n      iszero\n      iszero\n      dup2\n      mstore\n      0x20\n      add\n      swap2\n      pop\n      pop\n      mload(0x40)\n      dup1\n      swap2\n      sub\n      swap1\n      return\n        /* \"contracts/vendor/contracts/token/ERC20.sol\":3216:3322  function totalSupply() public view virtual override returns (uint256) {... */\n    tag_5:\n      tag_30\n      tag_31\n      jump\t// in\n    tag_30:\n      mload(0x40)\n      dup1\n      dup3\n      dup2\n      mstore\n      0x20\n      add\n      swap2\n      pop\n      pop\n      mload(0x40)\n      dup1\n      swap2\n      sub\n      swap1\n      return\n        /* \"contracts/contract/LinkToken.sol\":733:871  function typeAndVersion()... */\n    tag_6:\n      tag_32\n      tag_33\n      jump\t// in\n    tag_32:\n      mload(0x40)\n      dup1\n      dup1\n      0x20\n      add\n      dup3\n      dup2\n      sub\n      dup3\n      mstore\n      dup4\n      dup2\n      dup2\n      mload\n      dup2\n      mstore\n      0x20\n      add\n      swap2\n      pop\n      dup1\n      mload\n      swap1\n      0x20\n      add\n      swap1\n      dup1\n      dup4\n      dup4\n      0x00\n    tag_34:\n      dup4\n      dup2\n      lt\n      iszero\n      tag_36\n      jumpi\n      dup1\n      dup3\n      add\n      mload\n      dup2\n      dup5\n      add\n      mstore\n      0x20\n      dup2\n      add\n      swap1\n      pop\n      jump(tag_34)\n    tag_36:\n      pop\n      pop\n      pop\n      pop\n      swap1\n      pop\n      swap1\n      dup2\n      add\n      swap1\n      0x1f\n      and\n      dup1\n      iszero\n      tag_37\n      jumpi\n      dup1\n      dup3\n      sub\n      dup1\n      mload\n      0x01\n      dup4\n      0x20\n      sub\n      0x0100\n      exp\n      sub\n      not\n      and\n      dup2\n      mstore\n      0x20\n      add\n      swap2\n      pop\n    tag_37:\n      pop\n      swap3\n      pop\n      pop\n      pop\n      mload(0x40)\n      dup1\n      swap2\n      sub\n      swap1\n      return\n        /* \"contracts/vendor/contracts/token/ERC20.sol\":4858:5175  function transferFrom(address sender, address recipient, uint256 amount) public virtual override returns (bool) {... */\n    tag_7:\n      tag_38\n      0x04\n      dup1\n      calldatasize\n      sub\n      0x60\n      dup2\n      lt\n      iszero\n      tag_39\n      jumpi\n      0x00\n      dup1\n      revert\n    tag_39:\n      dup2\n      add\n      swap1\n      dup1\n      dup1\n      calldataload\n      0xffffffffffffffffffffffffffffffffffffffff\n      and\n      swap1\n      0x20\n      add\n      swap1\n      swap3\n      swap2\n      swap1\n      dup1\n      calldataload\n      0xffffffffffffffffffffffffffffffffffffffff\n      and\n      swap1\n      0x20\n      add\n      swap1\n      swap3\n      swap2\n      swap1\n      dup1\n      calldataload\n      swap1\n      0x20\n      add\n      swap1\n      swap3\n      swap2\n      swap1\n      pop\n      pop\n      pop\n      tag_40\n      jump\t// in\n    tag_38:\n      mload(0x40)\n      dup1\n      dup3\n      iszero\n      iszero\n      dup2\n      mstore\n      0x20\n      add\n      swap2\n      pop\n      pop\n      mload(0x40)\n      dup1\n      swap2\n      sub\n      swap1\n      return\n        /* \"contracts/vendor/contracts/token/ERC20.sol\":3067:3156  function decimals() public view virtual returns (uint8) {... */\n    tag_8:\n      tag_41\n      tag_42\n      jump\t// in\n    tag_41:\n      mload(0x40)\n      dup1\n      dup3\n      0xff\n      and\n      dup2\n      mstore\n      0x20\n      add\n      swap2\n      pop\n      pop\n      mload(0x40)\n      dup1\n      swap2\n      sub\n      swap1\n      return\n        /* \"contracts/vendor/contracts/token/ERC20.sol\":5570:5785  function increaseAllowance(address spender, uint256 addedValue) public virtual returns (bool) {... */\n    tag_9:\n      tag_43\n      0x04\n      dup1\n      calldatasize\n      sub\n      0x40\n      dup2\n      lt\n      iszero\n      tag_44\n      jumpi\n      0x00\n      dup1\n      revert\n    tag_44:\n      dup2\n      add\n      swap1\n      dup1\n      dup1\n      calldataload\n      0xffffffffffffffffffffffffffffffffffffffff\n      and\n      swap1\n      0x20\n      add\n      swap1\n      swap3\n      swap2\n      swap1\n      dup1\n      calldataload\n      swap1\n      0x20\n      add\n      swap1\n      swap3\n      swap2\n      swap1\n      pop\n      pop\n      pop\n      tag_45\n      jump\t// in\n    tag_43:\n      mload(0x40)\n      dup1\n      dup3\n      iszero\n      iszero\n      dup2\n      mstore\n      0x20\n      add\n      swap2\n      pop\n      pop\n      mload(0x40)\n      dup1\n      swap2\n      sub\n      swap1\n      return\n        /* \"contracts/contract/ERC677.sol\":507:830  function transferAndCall(... */\n    tag_10:\n      tag_46\n      0x04\n      dup1\n      calldatasize\n      sub\n      0x60\n      dup2\n      lt\n      iszero\n      tag_47\n      jumpi\n      0x00\n      dup1\n      revert\n    tag_47:\n      dup2\n      add\n      swap1\n      dup1\n      dup1\n      calldataload\n      0xffffffffffffffffffffffffffffffffffffffff\n      and\n      swap1\n      0x20\n      add\n      swap1\n      swap3\n      swap2\n      swap1\n      dup1\n      calldataload\n      swap1\n      0x20\n      add\n      swap1\n      swap3\n      swap2\n      swap1\n      dup1\n      calldataload\n      swap1\n      0x20\n      add\n      swap1\n      0x0100000000\n      dup2\n      gt\n      iszero\n      tag_48\n      jumpi\n      0x00\n      dup1\n      revert\n    tag_48:\n      dup3\n      add\n      dup4\n      0x20\n      dup3\n      add\n      gt\n      iszero\n      tag_49\n      jumpi\n      0x00\n      dup1\n      revert\n    tag_49:\n      dup1\n      calldataload\n      swap1\n      0x20\n      add\n      swap2\n      dup5\n      0x01\n      dup4\n      mul\n      dup5\n      add\n      gt\n      0x0100000000\n      dup4\n      gt\n      or\n      iszero\n      tag_50\n      jumpi\n      0x00\n      dup1\n      revert\n    tag_50:\n      swap2\n      swap1\n      dup1\n      dup1\n      0x1f\n      add\n      0x20\n      dup1\n      swap2\n      div\n      mul\n      0x20\n      add\n      mload(0x40)\n      swap1\n      dup2\n      add\n      0x40\n      mstore\n      dup1\n      swap4\n      swap3\n      swap2\n      swap1\n      dup2\n      dup2\n      mstore\n      0x20\n      add\n      dup4\n      dup4\n      dup1\n      dup3\n      dup5\n      calldatacopy\n      0x00\n      dup2\n      dup5\n      add\n      mstore\n      not(0x1f)\n      0x1f\n      dup3\n      add\n      and\n      swap1\n      pop\n      dup1\n      dup4\n      add\n      swap3\n      pop\n      pop\n      pop\n      pop\n      pop\n      pop\n      pop\n      swap2\n      swap3\n      swap2\n      swap3\n      swap1\n      pop\n      pop\n      pop\n      tag_51\n      jump\t// in\n    tag_46:\n      mload(0x40)\n      dup1\n      dup3\n      iszero\n      iszero\n      dup2\n      mstore\n      0x20\n      add\n      swap2\n      pop\n      pop\n      mload(0x40)\n      dup1\n      swap2\n      sub\n      swap1\n      return\n        /* \"contracts/contract/token/LinkERC20.sol\":1162:1353  function decreaseApproval(... */\n    tag_11:\n      tag_52\n      0x04\n      dup1\n      calldatasize\n      sub\n      0x40\n      dup2\n      lt\n      iszero\n      tag_53\n      jumpi\n      0x00\n      dup1\n      revert\n    tag_53:\n      dup2\n      add\n      swap1\n      dup1\n      dup1\n      calldataload\n      0xffffffffffffffffffffffffffffffffffffffff\n      and\n      swap1\n      0x20\n      add\n      swap1\n      swap3\n      swap2\n      swap1\n      dup1\n      calldataload\n      swap1\n      0x20\n      add\n      swap1\n      swap3\n      swap2\n      swap1\n      pop\n      pop\n      pop\n      tag_54\n      jump\t// in\n    tag_52:\n      mload(0x40)\n      dup1\n      dup3\n      iszero\n      iszero\n      dup2\n      mstore\n      0x20\n      add\n      swap2\n      pop\n      pop\n      mload(0x40)\n      dup1\n      swap2\n      sub\n      swap1\n      return\n        /* \"contracts/vendor/contracts/token/ERC20.sol\":3380:3505  function balanceOf(address account) public view virtual override returns (uint256) {... */\n    tag_12:\n      tag_55\n      0x04\n      dup1\n      calldatasize\n      sub\n      0x20\n      dup2\n      lt\n      iszero\n      tag_56\n      jumpi\n      0x00\n      dup1\n      revert\n    tag_56:\n      dup2\n      add\n      swap1\n      dup1\n      dup1\n      calldataload\n      0xffffffffffffffffffffffffffffffffffffffff\n      and\n      swap1\n      0x20\n      add\n      swap1\n      swap3\n      swap2\n      swap1\n      pop\n      pop\n      pop\n      tag_57\n      jump\t// in\n    tag_55:\n      mload(0x40)\n      dup1\n      dup3\n      dup2\n      mstore\n      0x20\n      add\n      swap2\n      pop\n      pop\n      mload(0x40)\n      dup1\n      swap2\n      sub\n      swap1\n      return\n        /* \"contracts/vendor/contracts/token/ERC20.sol\":2351:2444  function symbol() public view virtual returns (string memory) {... */\n    tag_13:\n      tag_58\n      tag_59\n      jump\t// in\n    tag_58:\n      mload(0x40)\n      dup1\n      dup1\n      0x20\n      add\n      dup3\n      dup2\n      sub\n      dup3\n      mstore\n      dup4\n      dup2\n      dup2\n      mload\n      dup2\n      mstore\n      0x20\n      add\n      swap2\n      pop\n      dup1\n      mload\n      swap1\n      0x20\n      add\n      swap1\n      dup1\n      dup4\n      dup4\n      0x00\n    tag_60:\n      dup4\n      dup2\n      lt\n      iszero\n      tag_62\n      jumpi\n      dup1\n      dup3\n      add\n      mload\n      dup2\n      dup5\n      add\n      mstore\n      0x20\n      dup2\n      add\n      swap1\n      pop\n      jump(tag_60)\n    tag_62:\n      pop\n      pop\n      pop\n      pop\n      swap1\n      pop\n      swap1\n      dup2\n      add\n      swap1\n      0x1f\n      and\n      dup1\n      iszero\n      tag_63\n      jumpi\n      dup1\n      dup3\n      sub\n      dup1\n      mload\n      0x01\n      dup4\n      0x20\n      sub\n      0x0100\n      exp\n      sub\n      not\n      and\n      dup2\n      mstore\n      0x20\n      add\n      swap2\n      pop\n    tag_63:\n      pop\n      swap3\n      pop\n      pop\n      pop\n      mload(0x40)\n      dup1\n      swap2\n      sub\n      swap1\n      return\n        /* \"contracts/vendor/contracts/token/ERC20.sol\":6272:6538  function decreaseAllowance(address spender, uint256 subtractedValue) public virtual returns (bool) {... */\n    tag_14:\n      tag_64\n      0x04\n      dup1\n      calldatasize\n      sub\n      0x40\n      dup2\n      lt\n      iszero\n      tag_65\n      jumpi\n      0x00\n      dup1\n      revert\n    tag_65:\n      dup2\n      add\n      swap1\n      dup1\n      dup1\n      calldataload\n      0xffffffffffffffffffffffffffffffffffffffff\n      and\n      swap1\n      0x20\n      add\n      swap1\n      swap3\n      swap2\n      swap1\n      dup1\n      calldataload\n      swap1\n      0x20\n      add\n      swap1\n      swap3\n      swap2\n      swap1\n      pop\n      pop\n      pop\n      tag_66\n      jump\t// in\n    tag_64:\n      mload(0x40)\n      dup1\n      dup3\n      iszero\n      iszero\n      dup2\n      mstore\n      0x20\n      add\n      swap2\n      pop\n      pop\n      mload(0x40)\n      dup1\n      swap2\n      sub\n      swap1\n      return\n        /* \"contracts/vendor/contracts/token/ERC20.sol\":3708:3880  function transfer(address recipient, uint256 amount) public virtual override returns (bool) {... */\n    tag_15:\n      tag_67\n      0x04\n      dup1\n      calldatasize\n      sub\n      0x40\n      dup2\n      lt\n      iszero\n      tag_68\n      jumpi\n      0x00\n      dup1\n      revert\n    tag_68:\n      dup2\n      add\n      swap1\n      dup1\n      dup1\n      calldataload\n      0xffffffffffffffffffffffffffffffffffffffff\n      and\n      swap1\n      0x20\n      add\n      swap1\n      swap3\n      swap2\n      swap1\n      dup1\n      calldataload\n      swap1\n      0x20\n      add\n      swap1\n      swap3\n      swap2\n      swap1\n      pop\n      pop\n      pop\n      tag_69\n      jump\t// in\n    tag_67:\n      mload(0x40)\n      dup1\n      dup3\n      iszero\n      iszero\n      dup2\n      mstore\n      0x20\n      add\n      swap2\n      pop\n      pop\n      mload(0x40)\n      dup1\n      swap2\n      sub\n      swap1\n      return\n        /* \"contracts/contract/token/LinkERC20.sol\":524:705  function increaseApproval(... */\n    tag_16:\n      tag_70\n      0x04\n      dup1\n      calldatasize\n      sub\n      0x40\n      dup2\n      lt\n      iszero\n      tag_71\n      jumpi\n      0x00\n      dup1\n      revert\n    tag_71:\n      dup2\n      add\n      swap1\n      dup1\n      dup1\n      calldataload\n      0xffffffffffffffffffffffffffffffffffffffff\n      and\n      swap1\n      0x20\n      add\n      swap1\n      swap3\n      swap2\n      swap1\n      dup1\n      calldataload\n      swap1\n      0x20\n      add\n      swap1\n      swap3\n      swap2\n      swap1\n      pop\n      pop\n      pop\n      tag_72\n      jump\t// in\n    tag_70:\n      mload(0x40)\n      dup1\n      dup3\n      iszero\n      iszero\n      dup2\n      mstore\n      0x20\n      add\n      swap2\n      pop\n      pop\n      mload(0x40)\n      dup1\n      swap2\n      sub\n      swap1\n      return\n        /* \"contracts/vendor/contracts/token/ERC20.sol\":3938:4087  function allowance(address owner, address spender) public view virtual override returns (uint256) {... */\n    tag_17:\n      tag_73\n      0x04\n      dup1\n      calldatasize\n      sub\n      0x40\n      dup2\n      lt\n      iszero\n      tag_74\n      jumpi\n      0x00\n      dup1\n      revert\n    tag_74:\n      dup2\n      add\n      swap1\n      dup1\n      dup1\n      calldataload\n      0xffffffffffffffffffffffffffffffffffffffff\n      and\n      swap1\n      0x20\n      add\n      swap1\n      swap3\n      swap2\n      swap1\n      dup1\n      calldataload\n      0xffffffffffffffffffffffffffffffffffffffff\n      and\n      swap1\n      0x20\n      add\n      swap1\n      swap3\n      swap2\n      swap1\n      pop\n      pop\n      pop\n      tag_75\n      jump\t// in\n    tag_73:\n      mload(0x40)\n      dup1\n      dup3\n      dup2\n      mstore\n      0x20\n      add\n      swap2\n      pop\n      pop\n      mload(0x40)\n      dup1\n      swap2\n      sub\n      swap1\n      return\n        /* \"contracts/vendor/contracts/token/ERC20.sol\":2149:2238  function name() public view virtual returns (string memory) {... */\n    tag_22:\n        /* \"contracts/vendor/contracts/token/ERC20.sol\":2194:2207  string memory */\n      0x60\n        /* \"contracts/vendor/contracts/token/ERC20.sol\":2226:2231  _name */\n      0x03\n        /* \"contracts/vendor/contracts/token/ERC20.sol\":2219:2231  return _name */\n      dup1\n      sload\n      0x01\n      dup2\n      0x01\n      and\n      iszero\n      0x0100\n      mul\n      sub\n      and\n      0x02\n      swap1\n      div\n      dup1\n      0x1f\n      add\n      0x20\n      dup1\n      swap2\n      div\n      mul\n      0x20\n      add\n      mload(0x40)\n      swap1\n      dup2\n      add\n      0x40\n      mstore\n      dup1\n      swap3\n      swap2\n      swap1\n      dup2\n      dup2\n      mstore\n      0x20\n      add\n      dup3\n      dup1\n      sload\n      0x01\n      dup2\n      0x01\n      and\n      iszero\n      0x0100\n      mul\n      sub\n      and\n      0x02\n      swap1\n      div\n      dup1\n      iszero\n      tag_78\n      jumpi\n      dup1\n      0x1f\n      lt\n      tag_79\n      jumpi\n      0x0100\n      dup1\n      dup4\n      sload\n      div\n      mul\n      dup4\n      mstore\n      swap2\n      0x20\n      add\n      swap2\n      jump(tag_78)\n    tag_79:\n      dup3\n      add\n      swap2\n      swap1\n      0x00\n      mstore\n      keccak256(0x00, 0x20)\n      swap1\n    tag_80:\n      dup2\n      sload\n      dup2\n      mstore\n      swap1\n      0x01\n      add\n      swap1\n      0x20\n      add\n      dup1\n      dup4\n      gt\n      tag_80\n      jumpi\n      dup3\n      swap1\n      sub\n      0x1f\n      and\n      dup3\n      add\n      swap2\n    tag_78:\n      pop\n      pop\n      pop\n      pop\n      pop\n      swap1\n      pop\n        /* \"contracts/vendor/contracts/token/ERC20.sol\":2149:2238  function name() public view virtual returns (string memory) {... */\n      swap1\n      jump\t// out\n        /* \"contracts/vendor/contracts/token/ERC20.sol\":4225:4391  function approve(address spender, uint256 amount) public virtual override returns (bool) {... */\n    tag_29:\n        /* \"contracts/vendor/contracts/token/ERC20.sol\":4308:4312  bool */\n      0x00\n        /* \"contracts/vendor/contracts/token/ERC20.sol\":4324:4363  _approve(_msgSender(), spender, amount) */\n      tag_82\n        /* \"contracts/vendor/contracts/token/ERC20.sol\":4333:4345  _msgSender() */\n      tag_83\n        /* \"contracts/vendor/contracts/token/ERC20.sol\":4333:4343  _msgSender */\n      tag_84\n        /* \"contracts/vendor/contracts/token/ERC20.sol\":4333:4345  _msgSender() */\n      jump\t// in\n    tag_83:\n        /* \"contracts/vendor/contracts/token/ERC20.sol\":4347:4354  spender */\n      dup5\n        /* \"contracts/vendor/contracts/token/ERC20.sol\":4356:4362  amount */\n      dup5\n        /* \"contracts/vendor/contracts/token/ERC20.sol\":4324:4332  _approve */\n      tag_85\n        /* \"contracts/vendor/contracts/token/ERC20.sol\":4324:4363  _approve(_msgSender(), spender, amount) */\n      jump\t// in\n    tag_82:\n        /* \"contracts/vendor/contracts/token/ERC20.sol\":4380:4384  true */\n      0x01\n        /* \"contracts/vendor/contracts/token/ERC20.sol\":4373:4384  return true */\n      swap1\n      pop\n        /* \"contracts/vendor/contracts/token/ERC20.sol\":4225:4391  function approve(address spender, uint256 amount) public virtual override returns (bool) {... */\n      swap3\n      swap2\n      pop\n      pop\n      jump\t// out\n        /* \"contracts/vendor/contracts/token/ERC20.sol\":3216:3322  function totalSupply() public view virtual override returns (uint256) {... */\n    tag_31:\n        /* \"contracts/vendor/contracts/token/ERC20.sol\":3277:3284  uint256 */\n      0x00\n        /* \"contracts/vendor/contracts/token/ERC20.sol\":3303:3315  _totalSupply */\n      sload(0x02)\n        /* \"contracts/vendor/contracts/token/ERC20.sol\":3296:3315  return _totalSupply */\n      swap1\n      pop\n        /* \"contracts/vendor/contracts/token/ERC20.sol\":3216:3322  function totalSupply() public view virtual override returns (uint256) {... */\n      swap1\n      jump\t// out\n        /* \"contracts/contract/LinkToken.sol\":733:871  function typeAndVersion()... */\n    tag_33:\n        /* \"contracts/contract/LinkToken.sol\":819:832  string memory */\n      0x60\n        /* \"contracts/contract/LinkToken.sol\":842:866  return \"LinkToken 0.0.3\" */\n      mload(0x40)\n      dup1\n      0x40\n      add\n      0x40\n      mstore\n      dup1\n      0x0f\n      dup2\n      mstore\n      0x20\n      add\n      0x4c696e6b546f6b656e20302e302e330000000000000000000000000000000000\n      dup2\n      mstore\n      pop\n      swap1\n      pop\n        /* \"contracts/contract/LinkToken.sol\":733:871  function typeAndVersion()... */\n      swap1\n      jump\t// out\n        /* \"contracts/vendor/contracts/token/ERC20.sol\":4858:5175  function transferFrom(address sender, address recipient, uint256 amount) public virtual override returns (bool) {... */\n    tag_40:\n        /* \"contracts/vendor/contracts/token/ERC20.sol\":4964:4968  bool */\n      0x00\n        /* \"contracts/vendor/contracts/token/ERC20.sol\":4980:5016  _transfer(sender, recipient, amount) */\n      tag_89\n        /* \"contracts/vendor/contracts/token/ERC20.sol\":4990:4996  sender */\n      dup5\n        /* \"contracts/vendor/contracts/token/ERC20.sol\":4998:5007  recipient */\n      dup5\n        /* \"contracts/vendor/contracts/token/ERC20.sol\":5009:5015  amount */\n      dup5\n        /* \"contracts/vendor/contracts/token/ERC20.sol\":4980:4989  _transfer */\n      tag_90\n        /* \"contracts/vendor/contracts/token/ERC20.sol\":4980:5016  _transfer(sender, recipient, amount) */\n      jump\t// in\n    tag_89:\n        /* \"contracts/vendor/contracts/token/ERC20.sol\":5026:5147  _approve(sender, _msgSender(), _allowances[sender][_msgSender()].sub(amount, \"ERC20: transfer amount exceeds allowance\")) */\n      tag_91\n        /* \"contracts/vendor/contracts/token/ERC20.sol\":5035:5041  sender */\n      dup5\n        /* \"contracts/vendor/contracts/token/ERC20.sol\":5043:5055  _msgSender() */\n      tag_92\n        /* \"contracts/vendor/contracts/token/ERC20.sol\":5043:5053  _msgSender */\n      tag_84\n        /* \"contracts/vendor/contracts/token/ERC20.sol\":5043:5055  _msgSender() */\n      jump\t// in\n    tag_92:\n        /* \"contracts/vendor/contracts/token/ERC20.sol\":5057:5146  _allowances[sender][_msgSender()].sub(amount, \"ERC20: transfer amount exceeds allowance\") */\n      tag_93\n        /* \"contracts/vendor/contracts/token/ERC20.sol\":5095:5101  amount */\n      dup6\n        /* \"contracts/vendor/contracts/token/ERC20.sol\":5057:5146  _allowances[sender][_msgSender()].sub(amount, \"ERC20: transfer amount exceeds allowance\") */\n      mload(0x40)\n      dup1\n      0x60\n      add\n      0x40\n      mstore\n      dup1\n      0x28\n      dup2\n      mstore\n      0x20\n      add\n      data_974d1b4421da69cc60b481194f0dad36a5bb4e23da810da7a7fb30cdba178330\n      0x28\n      swap2\n      codecopy\n        /* \"contracts/vendor/contracts/token/ERC20.sol\":5057:5068  _allowances */\n      0x01\n        /* \"contracts/vendor/contracts/token/ERC20.sol\":5057:5076  _allowances[sender] */\n      0x00\n        /* \"contracts/vendor/contracts/token/ERC20.sol\":5069:5075  sender */\n      dup12\n        /* \"contracts/vendor/contracts/token/ERC20.sol\":5057:5076  _allowances[sender] */\n      0xffffffffffffffffffffffffffffffffffffffff\n      and\n      0xffffffffffffffffffffffffffffffffffffffff\n      and\n      dup2\n      mstore\n      0x20\n      add\n      swap1\n      dup2\n      mstore\n      0x20\n      add\n      0x00\n      keccak256\n        /* \"contracts/vendor/contracts/token/ERC20.sol\":5057:5090  _allowances[sender][_msgSender()] */\n      0x00\n        /* \"contracts/vendor/contracts/token/ERC20.sol\":5077:5089  _msgSender() */\n      tag_94\n        /* \"contracts/vendor/contracts/token/ERC20.sol\":5077:5087  _msgSender */\n      tag_84\n        /* \"contracts/vendor/contracts/token/ERC20.sol\":5077:5089  _msgSender() */\n      jump\t// in\n    tag_94:\n        /* \"contracts/vendor/contracts/token/ERC20.sol\":5057:5090  _allowances[sender][_msgSender()] */\n      0xffffffffffffffffffffffffffffffffffffffff\n      and\n      0xffffffffffffffffffffffffffffffffffffffff\n      and\n      dup2\n      mstore\n      0x20\n      add\n      swap1\n      dup2\n      mstore\n      0x20\n      add\n      0x00\n      keccak256\n      sload\n        /* \"contracts/vendor/contracts/token/ERC20.sol\":5057:5094  _allowances[sender][_msgSender()].sub */\n      tag_95\n      swap1\n        /* \"contracts/vendor/contracts/token/ERC20.sol\":5057:5146  _allowances[sender][_msgSender()].sub(amount, \"ERC20: transfer amount exceeds allowance\") */\n      swap3\n      swap2\n      swap1\n      0xffffffff\n      and\n      jump\t// in\n    tag_93:\n        /* \"contracts/vendor/contracts/token/ERC20.sol\":5026:5034  _approve */\n      tag_85\n        /* \"contracts/vendor/contracts/token/ERC20.sol\":5026:5147  _approve(sender, _msgSender(), _allowances[sender][_msgSender()].sub(amount, \"ERC20: transfer amount exceeds allowance\")) */\n      jump\t// in\n    tag_91:\n        /* \"contracts/vendor/contracts/token/ERC20.sol\":5164:5168  true */\n      0x01\n        /* \"contracts/vendor/contracts/token/ERC20.sol\":5157:5168  return true */\n      swap1\n      pop\n        /* \"contracts/vendor/contracts/token/ERC20.sol\":4858:5175  function transferFrom(address sender, address recipient, uint256 amount) public virtual override returns (bool) {... */\n      swap4\n      swap3\n      pop\n      pop\n      pop\n      jump\t// out\n        /* \"contracts/vendor/contracts/token/ERC20.sol\":3067:3156  function decimals() public view virtual returns (uint8) {... */\n    tag_42:\n        /* \"contracts/vendor/contracts/token/ERC20.sol\":3116:3121  uint8 */\n      0x00\n        /* \"contracts/vendor/contracts/token/ERC20.sol\":3140:3149  _decimals */\n      0x05\n      0x00\n      swap1\n      sload\n      swap1\n      0x0100\n      exp\n      swap1\n      div\n      0xff\n      and\n        /* \"contracts/vendor/contracts/token/ERC20.sol\":3133:3149  return _decimals */\n      swap1\n      pop\n        /* \"contracts/vendor/contracts/token/ERC20.sol\":3067:3156  function decimals() public view virtual returns (uint8) {... */\n      swap1\n      jump\t// out\n        /* \"contracts/vendor/contracts/token/ERC20.sol\":5570:5785  function increaseAllowance(address spender, uint256 addedValue) public virtual returns (bool) {... */\n    tag_45:\n        /* \"contracts/vendor/contracts/token/ERC20.sol\":5658:5662  bool */\n      0x00\n        /* \"contracts/vendor/contracts/token/ERC20.sol\":5674:5757  _approve(_msgSender(), spender, _allowances[_msgSender()][spender].add(addedValue)) */\n      tag_98\n        /* \"contracts/vendor/contracts/token/ERC20.sol\":5683:5695  _msgSender() */\n      tag_99\n        /* \"contracts/vendor/contracts/token/ERC20.sol\":5683:5693  _msgSender */\n      tag_84\n        /* \"contracts/vendor/contracts/token/ERC20.sol\":5683:5695  _msgSender() */\n      jump\t// in\n    tag_99:\n        /* \"contracts/vendor/contracts/token/ERC20.sol\":5697:5704  spender */\n      dup5\n        /* \"contracts/vendor/contracts/token/ERC20.sol\":5706:5756  _allowances[_msgSender()][spender].add(addedValue) */\n      tag_100\n        /* \"contracts/vendor/contracts/token/ERC20.sol\":5745:5755  addedValue */\n      dup6\n        /* \"contracts/vendor/contracts/token/ERC20.sol\":5706:5717  _allowances */\n      0x01\n        /* \"contracts/vendor/contracts/token/ERC20.sol\":5706:5731  _allowances[_msgSender()] */\n      0x00\n        /* \"contracts/vendor/contracts/token/ERC20.sol\":5718:5730  _msgSender() */\n      tag_101\n        /* \"contracts/vendor/contracts/token/ERC20.sol\":5718:5728  _msgSender */\n      tag_84\n        /* \"contracts/vendor/contracts/token/ERC20.sol\":5718:5730  _msgSender() */\n      jump\t// in\n    tag_101:\n        /* \"contracts/vendor/contracts/token/ERC20.sol\":5706:5731  _allowances[_msgSender()] */\n      0xffffffffffffffffffffffffffffffffffffffff\n      and\n      0xffffffffffffffffffffffffffffffffffffffff\n      and\n      dup2\n      mstore\n      0x20\n      add\n      swap1\n      dup2\n      mstore\n      0x20\n      add\n      0x00\n      keccak256\n        /* \"contracts/vendor/contracts/token/ERC20.sol\":5706:5740  _allowances[_msgSender()][spender] */\n      0x00\n        /* \"contracts/vendor/contracts/token/ERC20.sol\":5732:5739  spender */\n      dup10\n        /* \"contracts/vendor/contracts/token/ERC20.sol\":5706:5740  _allowances[_msgSender()][spender] */\n      0xffffffffffffffffffffffffffffffffffffffff\n      and\n      0xffffffffffffffffffffffffffffffffffffffff\n      and\n      dup2\n      mstore\n      0x20\n      add\n      swap1\n      dup2\n      mstore\n      0x20\n      add\n      0x00\n      keccak256\n      sload\n        /* \"contracts/vendor/contracts/token/ERC20.sol\":5706:5744  _allowances[_msgSender()][spender].add */\n      tag_76\n      swap1\n        /* \"contracts/vendor/contracts/token/ERC20.sol\":5706:5756  _allowances[_msgSender()][spender].add(addedValue) */\n      swap2\n      swap1\n      0xffffffff\n      and\n      jump\t// in\n    tag_100:\n        /* \"contracts/vendor/contracts/token/ERC20.sol\":5674:5682  _approve */\n      tag_85\n        /* \"contracts/vendor/contracts/token/ERC20.sol\":5674:5757  _approve(_msgSender(), spender, _allowances[_msgSender()][spender].add(addedValue)) */\n      jump\t// in\n    tag_98:\n        /* \"contracts/vendor/contracts/token/ERC20.sol\":5774:5778  true */\n      0x01\n        /* \"contracts/vendor/contracts/token/ERC20.sol\":5767:5778  return true */\n      swap1\n      pop\n        /* \"contracts/vendor/contracts/token/ERC20.sol\":5570:5785  function increaseAllowance(address spender, uint256 addedValue) public virtual returns (bool) {... */\n      swap3\n      swap2\n      pop\n      pop\n      jump\t// out\n        /* \"contracts/contract/ERC677.sol\":507:830  function transferAndCall(... */\n    tag_51:\n        /* \"contracts/contract/ERC677.sol\":640:652  bool success */\n      0x00\n        /* \"contracts/contract/ERC677.sol\":662:687  super.transfer(to, value) */\n      tag_103\n        /* \"contracts/contract/ERC677.sol\":677:679  to */\n      dup5\n        /* \"contracts/contract/ERC677.sol\":681:686  value */\n      dup5\n        /* \"contracts/contract/ERC677.sol\":662:676  super.transfer */\n      tag_69\n        /* \"contracts/contract/ERC677.sol\":662:687  super.transfer(to, value) */\n      jump\t// in\n    tag_103:\n      pop\n        /* \"contracts/contract/ERC677.sol\":719:721  to */\n      dup4\n        /* \"contracts/contract/ERC677.sol\":698:735  Transfer(msg.sender, to, value, data) */\n      0xffffffffffffffffffffffffffffffffffffffff\n      and\n        /* \"contracts/contract/ERC677.sol\":707:717  msg.sender */\n      caller\n        /* \"contracts/contract/ERC677.sol\":698:735  Transfer(msg.sender, to, value, data) */\n      0xffffffffffffffffffffffffffffffffffffffff\n      and\n      0xe19260aff97b920c7df27010903aeb9c8d2be5d310a2c67824cf3f15396e4c16\n        /* \"contracts/contract/ERC677.sol\":723:728  value */\n      dup6\n        /* \"contracts/contract/ERC677.sol\":730:734  data */\n      dup6\n        /* \"contracts/contract/ERC677.sol\":698:735  Transfer(msg.sender, to, value, data) */\n      mload(0x40)\n      dup1\n      dup4\n      dup2\n      mstore\n      0x20\n      add\n      dup1\n      0x20\n      add\n      dup3\n      dup2\n      sub\n      dup3\n      mstore\n      dup4\n      dup2\n      dup2\n      mload\n      dup2\n      mstore\n      0x20\n      add\n      swap2\n      pop\n      dup1\n      mload\n      swap1\n      0x20\n      add\n      swap1\n      dup1\n      dup4\n      dup4\n      0x00\n    tag_104:\n      dup4\n      dup2\n      lt\n      iszero\n      tag_106\n      jumpi\n      dup1\n      dup3\n      add\n      mload\n      dup2\n      dup5\n      add\n      mstore\n      0x20\n      dup2\n      add\n      swap1\n      pop\n      jump(tag_104)\n    tag_106:\n      pop\n      pop\n      pop\n      pop\n      swap1\n      pop\n      swap1\n      dup2\n      add\n      swap1\n      0x1f\n      and\n      dup1\n      iszero\n      tag_107\n      jumpi\n      dup1\n      dup3\n      sub\n      dup1\n      mload\n      0x01\n      dup4\n      0x20\n      sub\n      0x0100\n      exp\n      sub\n      not\n      and\n      dup2\n      mstore\n      0x20\n      add\n      swap2\n      pop\n    tag_107:\n      pop\n      swap4\n      pop\n      pop\n      pop\n      pop\n      mload(0x40)\n      dup1\n      swap2\n      sub\n      swap1\n      log3\n        /* \"contracts/contract/ERC677.sol\":745:759  isContract(to) */\n      tag_108\n        /* \"contracts/contract/ERC677.sol\":756:758  to */\n      dup5\n        /* \"contracts/contract/ERC677.sol\":745:755  isContract */\n      tag_109\n        /* \"contracts/contract/ERC677.sol\":745:759  isContract(to) */\n      jump\t// in\n    tag_108:\n        /* \"contracts/contract/ERC677.sol\":741:809  if (isContract(to)) {... */\n      iszero\n      tag_110\n      jumpi\n        /* \"contracts/contract/ERC677.sol\":769:802  contractFallback(to, value, data) */\n      tag_111\n        /* \"contracts/contract/ERC677.sol\":786:788  to */\n      dup5\n        /* \"contracts/contract/ERC677.sol\":790:795  value */\n      dup5\n        /* \"contracts/contract/ERC677.sol\":797:801  data */\n      dup5\n        /* \"contracts/contract/ERC677.sol\":769:785  contractFallback */\n      tag_112\n        /* \"contracts/contract/ERC677.sol\":769:802  contractFallback(to, value, data) */\n      jump\t// in\n    tag_111:\n        /* \"contracts/contract/ERC677.sol\":741:809  if (isContract(to)) {... */\n    tag_110:\n        /* \"contracts/contract/ERC677.sol\":821:825  true */\n      0x01\n        /* \"contracts/contract/ERC677.sol\":814:825  return true */\n      swap1\n      pop\n        /* \"contracts/contract/ERC677.sol\":507:830  function transferAndCall(... */\n      swap4\n      swap3\n      pop\n      pop\n      pop\n      jump\t// out\n        /* \"contracts/contract/token/LinkERC20.sol\":1162:1353  function decreaseApproval(... */\n    tag_54:\n        /* \"contracts/contract/token/LinkERC20.sol\":1278:1282  bool */\n      0x00\n        /* \"contracts/contract/token/LinkERC20.sol\":1299:1348  super.decreaseAllowance(spender, subtractedValue) */\n      tag_114\n        /* \"contracts/contract/token/LinkERC20.sol\":1323:1330  spender */\n      dup4\n        /* \"contracts/contract/token/LinkERC20.sol\":1332:1347  subtractedValue */\n      dup4\n        /* \"contracts/contract/token/LinkERC20.sol\":1299:1322  super.decreaseAllowance */\n      tag_66\n        /* \"contracts/contract/token/LinkERC20.sol\":1299:1348  super.decreaseAllowance(spender, subtractedValue) */\n      jump\t// in\n    tag_114:\n        /* \"contracts/contract/token/LinkERC20.sol\":1292:1348  return super.decreaseAllowance(spender, subtractedValue) */\n      swap1\n      pop\n        /* \"contracts/contract/token/LinkERC20.sol\":1162:1353  function decreaseApproval(... */\n      swap3\n      swap2\n      pop\n      pop\n      jump\t// out\n        /* \"contracts/vendor/contracts/token/ERC20.sol\":3380:3505  function balanceOf(address account) public view virtual override returns (uint256) {... */\n    tag_57:\n        /* \"contracts/vendor/contracts/token/ERC20.sol\":3454:3461  uint256 */\n      0x00\n        /* \"contracts/vendor/contracts/token/ERC20.sol\":3480:3489  _balances */\n      dup1\n        /* \"contracts/vendor/contracts/token/ERC20.sol\":3480:3498  _balances[account] */\n      0x00\n        /* \"contracts/vendor/contracts/token/ERC20.sol\":3490:3497  account */\n      dup4\n        /* \"contracts/vendor/contracts/token/ERC20.sol\":3480:3498  _balances[account] */\n      0xffffffffffffffffffffffffffffffffffffffff\n      and\n      0xffffffffffffffffffffffffffffffffffffffff\n      and\n      dup2\n      mstore\n      0x20\n      add\n      swap1\n      dup2\n      mstore\n      0x20\n      add\n      0x00\n      keccak256\n      sload\n        /* \"contracts/vendor/contracts/token/ERC20.sol\":3473:3498  return _balances[account] */\n      swap1\n      pop\n        /* \"contracts/vendor/contracts/token/ERC20.sol\":3380:3505  function balanceOf(address account) public view virtual override returns (uint256) {... */\n      swap2\n      swap1\n      pop\n      jump\t// out\n        /* \"contracts/vendor/contracts/token/ERC20.sol\":2351:2444  function symbol() public view virtual returns (string memory) {... */\n    tag_59:\n        /* \"contracts/vendor/contracts/token/ERC20.sol\":2398:2411  string memory */\n      0x60\n        /* \"contracts/vendor/contracts/token/ERC20.sol\":2430:2437  _symbol */\n      0x04\n        /* \"contracts/vendor/contracts/token/ERC20.sol\":2423:2437  return _symbol */\n      dup1\n      sload\n      0x01\n      dup2\n      0x01\n      and\n      iszero\n      0x0100\n      mul\n      sub\n      and\n      0x02\n      swap1\n      div\n      dup1\n      0x1f\n      add\n      0x20\n      dup1\n      swap2\n      div\n      mul\n      0x20\n      add\n      mload(0x40)\n      swap1\n      dup2\n      add\n      0x40\n      mstore\n      dup1\n      swap3\n      swap2\n      swap1\n      dup2\n      dup2\n      mstore\n      0x20\n      add\n      dup3\n      dup1\n      sload\n      0x01\n      dup2\n      0x01\n      and\n      iszero\n      0x0100\n      mul\n      sub\n      and\n      0x02\n      swap1\n      div\n      dup1\n      iszero\n      tag_117\n      jumpi\n      dup1\n      0x1f\n      lt\n      tag_118\n      jumpi\n      0x0100\n      dup1\n      dup4\n      sload\n      div\n      mul\n      dup4\n      mstore\n      swap2\n      0x20\n      add\n      swap2\n      jump(tag_117)\n    tag_118:\n      dup3\n      add\n      swap2\n      swap1\n      0x00\n      mstore\n      keccak256(0x00, 0x20)\n      swap1\n    tag_119:\n      dup2\n      sload\n      dup2\n      mstore\n      swap1\n      0x01\n      add\n      swap1\n      0x20\n      add\n      dup1\n      dup4\n      gt\n      tag_119\n      jumpi\n      dup3\n      swap1\n      sub\n      0x1f\n      and\n      dup3\n      add\n      swap2\n    tag_117:\n      pop\n      pop\n      pop\n      pop\n      pop\n      swap1\n      pop\n        /* \"contracts/vendor/contracts/token/ERC20.sol\":2351:2444  function symbol() public view virtual returns (string memory) {... */\n      swap1\n      jump\t// out\n        /* \"contracts/vendor/contracts/token/ERC20.sol\":6272:6538  function decreaseAllowance(address spender, uint256 subtractedValue) public virtual returns (bool) {... */\n    tag_66:\n        /* \"contracts/vendor/contracts/token/ERC20.sol\":6365:6369  bool */\n      0x00\n        /* \"contracts/vendor/contracts/token/ERC20.sol\":6381:6510  _approve(_msgSender(), spender, _allowances[_msgSender()][spender].sub(subtractedValue, \"ERC20: decreased allowance below zero\")) */\n      tag_121\n        /* \"contracts/vendor/contracts/token/ERC20.sol\":6390:6402  _msgSender() */\n      tag_122\n        /* \"contracts/vendor/contracts/token/ERC20.sol\":6390:6400  _msgSender */\n      tag_84\n        /* \"contracts/vendor/contracts/token/ERC20.sol\":6390:6402  _msgSender() */\n      jump\t// in\n    tag_122:\n        /* \"contracts/vendor/contracts/token/ERC20.sol\":6404:6411  spender */\n      dup5\n        /* \"contracts/vendor/contracts/token/ERC20.sol\":6413:6509  _allowances[_msgSender()][spender].sub(subtractedValue, \"ERC20: decreased allowance below zero\") */\n      tag_123\n        /* \"contracts/vendor/contracts/token/ERC20.sol\":6452:6467  subtractedValue */\n      dup6\n        /* \"contracts/vendor/contracts/token/ERC20.sol\":6413:6509  _allowances[_msgSender()][spender].sub(subtractedValue, \"ERC20: decreased allowance below zero\") */\n      mload(0x40)\n      dup1\n      0x60\n      add\n      0x40\n      mstore\n      dup1\n      0x25\n      dup2\n      mstore\n      0x20\n      add\n      data_f8b476f7d28209d77d4a4ac1fe36b9f8259aa1bb6bddfa6e89de7e51615cf8a8\n      0x25\n      swap2\n      codecopy\n        /* \"contracts/vendor/contracts/token/ERC20.sol\":6413:6424  _allowances */\n      0x01\n        /* \"contracts/vendor/contracts/token/ERC20.sol\":6413:6438  _allowances[_msgSender()] */\n      0x00\n        /* \"contracts/vendor/contracts/token/ERC20.sol\":6425:6437  _msgSender() */\n      tag_124\n        /* \"contracts/vendor/contracts/token/ERC20.sol\":6425:6435  _msgSender */\n      tag_84\n        /* \"contracts/vendor/contracts/token/ERC20.sol\":6425:6437  _msgSender() */\n      jump\t// in\n    tag_124:\n        /* \"contracts/vendor/contracts/token/ERC20.sol\":6413:6438  _allowances[_msgSender()] */\n      0xffffffffffffffffffffffffffffffffffffffff\n      and\n      0xffffffffffffffffffffffffffffffffffffffff\n      and\n      dup2\n      mstore\n      0x20\n      add\n      swap1\n      dup2\n      mstore\n      0x20\n      add\n      0x00\n      keccak256\n        /* \"contracts/vendor/contracts/token/ERC20.sol\":6413:6447  _allowances[_msgSender()][spender] */\n      0x00\n        /* \"contracts/vendor/contracts/token/ERC20.sol\":6439:6446  spender */\n      dup11\n        /* \"contracts/vendor/contracts/token/ERC20.sol\":6413:6447  _allowances[_msgSender()][spender] */\n      0xffffffffffffffffffffffffffffffffffffffff\n      and\n      0xffffffffffffffffffffffffffffffffffffffff\n      and\n      dup2\n      mstore\n      0x20\n      add\n      swap1\n      dup2\n      mstore\n      0x20\n      add\n      0x00\n      keccak256\n      sload\n        /* \"contracts/vendor/contracts/token/ERC20.sol\":6413:6451  _allowances[_msgSender()][spender].sub */\n      tag_95\n      swap1\n        /* \"contracts/vendor/contracts/token/ERC20.sol\":6413:6509  _allowances[_msgSender()][spender].sub(subtractedValue, \"ERC20: decreased allowance below zero\") */\n      swap3\n      swap2\n      swap1\n      0xffffffff\n      and\n      jump\t// in\n    tag_123:\n        /* \"contracts/vendor/contracts/token/ERC20.sol\":6381:6389  _approve */\n      tag_85\n        /* \"contracts/vendor/contracts/token/ERC20.sol\":6381:6510  _approve(_msgSender(), spender, _allowances[_msgSender()][spender].sub(subtractedValue, \"ERC20: decreased allowance below zero\")) */\n      jump\t// in\n    tag_121:\n        /* \"contracts/vendor/contracts/token/ERC20.sol\":6527:6531  true */\n      0x01\n        /* \"contracts/vendor/contracts/token/ERC20.sol\":6520:6531  return true */\n      swap1\n      pop\n        /* \"contracts/vendor/contracts/token/ERC20.sol\":6272:6538  function decreaseAllowance(address spender, uint256 subtractedValue) public virtual returns (bool) {... */\n      swap3\n      swap2\n      pop\n      pop\n      jump\t// out\n        /* \"contracts/vendor/contracts/token/ERC20.sol\":3708:3880  function transfer(address recipient, uint256 amount) public virtual override returns (bool) {... */\n    tag_69:\n        /* \"contracts/vendor/contracts/token/ERC20.sol\":3794:3798  bool */\n      0x00\n        /* \"contracts/vendor/contracts/token/ERC20.sol\":3810:3852  _transfer(_msgSender(), recipient, amount) */\n      tag_126\n        /* \"contracts/vendor/contracts/token/ERC20.sol\":3820:3832  _msgSender() */\n      tag_127\n        /* \"contracts/vendor/contracts/token/ERC20.sol\":3820:3830  _msgSender */\n      tag_84\n        /* \"contracts/vendor/contracts/token/ERC20.sol\":3820:3832  _msgSender() */\n      jump\t// in\n    tag_127:\n        /* \"contracts/vendor/contracts/token/ERC20.sol\":3834:3843  recipient */\n      dup5\n        /* \"contracts/vendor/contracts/token/ERC20.sol\":3845:3851  amount */\n      dup5\n        /* \"contracts/vendor/contracts/token/ERC20.sol\":3810:3819  _transfer */\n      tag_90\n        /* \"contracts/vendor/contracts/token/ERC20.sol\":3810:3852  _transfer(_msgSender(), recipient, amount) */\n      jump\t// in\n    tag_126:\n        /* \"contracts/vendor/contracts/token/ERC20.sol\":3869:3873  true */\n      0x01\n        /* \"contracts/vendor/contracts/token/ERC20.sol\":3862:3873  return true */\n      swap1\n      pop\n        /* \"contracts/vendor/contracts/token/ERC20.sol\":3708:3880  function transfer(address recipient, uint256 amount) public virtual override returns (bool) {... */\n      swap3\n      swap2\n      pop\n      pop\n      jump\t// out\n        /* \"contracts/contract/token/LinkERC20.sol\":524:705  function increaseApproval(... */\n    tag_72:\n        /* \"contracts/contract/token/LinkERC20.sol\":635:639  bool */\n      0x00\n        /* \"contracts/contract/token/LinkERC20.sol\":656:700  super.increaseAllowance(spender, addedValue) */\n      tag_129\n        /* \"contracts/contract/token/LinkERC20.sol\":680:687  spender */\n      dup4\n        /* \"contracts/contract/token/LinkERC20.sol\":689:699  addedValue */\n      dup4\n        /* \"contracts/contract/token/LinkERC20.sol\":656:679  super.increaseAllowance */\n      tag_45\n        /* \"contracts/contract/token/LinkERC20.sol\":656:700  super.increaseAllowance(spender, addedValue) */\n      jump\t// in\n    tag_129:\n        /* \"contracts/contract/token/LinkERC20.sol\":649:700  return super.increaseAllowance(spender, addedValue) */\n      swap1\n      pop\n        /* \"contracts/contract/token/LinkERC20.sol\":524:705  function increaseApproval(... */\n      swap3\n      swap2\n      pop\n      pop\n      jump\t// out\n        /* \"contracts/vendor/contracts/token/ERC20.sol\":3938:4087  function allowance(address owner, address spender) public view virtual override returns (uint256) {... */\n    tag_75:\n        /* \"contracts/vendor/contracts/token/ERC20.sol\":4027:4034  uint256 */\n      0x00\n        /* \"contracts/vendor/contracts/token/ERC20.sol\":4053:4064  _allowances */\n      0x01\n        /* \"contracts/vendor/contracts/token/ERC20.sol\":4053:4071  _allowances[owner] */\n      0x00\n        /* \"contracts/vendor/contracts/token/ERC20.sol\":4065:4070  owner */\n      dup5\n        /* \"contracts/vendor/contracts/token/ERC20.sol\":4053:4071  _allowances[owner] */\n      0xffffffffffffffffffffffffffffffffffffffff\n      and\n      0xffffffffffffffffffffffffffffffffffffffff\n      and\n      dup2\n      mstore\n      0x20\n      add\n      swap1\n      dup2\n      mstore\n      0x20\n      add\n      0x00\n      keccak256\n        /* \"contracts/vendor/contracts/token/ERC20.sol\":4053:4080  _allowances[owner][spender] */\n      0x00\n        /* \"contracts/vendor/contracts/token/ERC20.sol\":4072:4079  spender */\n      dup4\n        /* \"contracts/vendor/contracts/token/ERC20.sol\":4053:4080  _allowances[owner][spender] */\n      0xffffffffffffffffffffffffffffffffffffffff\n      and\n      0xffffffffffffffffffffffffffffffffffffffff\n      and\n      dup2\n      mstore\n      0x20\n      add\n      swap1\n      dup2\n      mstore\n      0x20\n      add\n      0x00\n      keccak256\n      sload\n        /* \"contracts/vendor/contracts/token/ERC20.sol\":4046:4080  return _allowances[owner][spender] */\n      swap1\n      pop\n        /* \"contracts/vendor/contracts/token/ERC20.sol\":3938:4087  function allowance(address owner, address spender) public view virtual override returns (uint256) {... */\n      swap3\n      swap2\n      pop\n      pop\n      jump\t// out\n        /* \"contracts/vendor/contracts/token/SafeMath.sol\":2690:2865  function add(uint256 a, uint256 b) internal pure returns (uint256) {... */\n    tag_76:\n        /* \"contracts/vendor/contracts/token/SafeMath.sol\":2748:2755  uint256 */\n      0x00\n        /* \"contracts/vendor/contracts/token/SafeMath.sol\":2767:2776  uint256 c */\n      dup1\n        /* \"contracts/vendor/contracts/token/SafeMath.sol\":2783:2784  b */\n      dup3\n        /* \"contracts/vendor/contracts/token/SafeMath.sol\":2779:2780  a */\n      dup5\n        /* \"contracts/vendor/contracts/token/SafeMath.sol\":2779:2784  a + b */\n      add\n        /* \"contracts/vendor/contracts/token/SafeMath.sol\":2767:2784  uint256 c = a + b */\n      swap1\n      pop\n        /* \"contracts/vendor/contracts/token/SafeMath.sol\":2807:2808  a */\n      dup4\n        /* \"contracts/vendor/contracts/token/SafeMath.sol\":2802:2803  c */\n      dup2\n        /* \"contracts/vendor/contracts/token/SafeMath.sol\":2802:2808  c >= a */\n      lt\n      iszero\n        /* \"contracts/vendor/contracts/token/SafeMath.sol\":2794:2840  require(c >= a, \"SafeMath: addition overflow\") */\n      tag_132\n      jumpi\n      mload(0x40)\n      0x08c379a000000000000000000000000000000000000000000000000000000000\n      dup2\n      mstore\n      0x04\n      add\n      dup1\n      dup1\n      0x20\n      add\n      dup3\n      dup2\n      sub\n      dup3\n      mstore\n      0x1b\n      dup2\n      mstore\n      0x20\n      add\n      dup1\n      0x536166654d6174683a206164646974696f6e206f766572666c6f770000000000\n      dup2\n      mstore\n      pop\n      0x20\n      add\n      swap2\n      pop\n      pop\n      mload(0x40)\n      dup1\n      swap2\n      sub\n      swap1\n      revert\n    tag_132:\n        /* \"contracts/vendor/contracts/token/SafeMath.sol\":2857:2858  c */\n      dup1\n        /* \"contracts/vendor/contracts/token/SafeMath.sol\":2850:2858  return c */\n      swap2\n      pop\n      pop\n        /* \"contracts/vendor/contracts/token/SafeMath.sol\":2690:2865  function add(uint256 a, uint256 b) internal pure returns (uint256) {... */\n      swap3\n      swap2\n      pop\n      pop\n      jump\t// out\n        /* \"contracts/vendor/contracts/token/Context.sol\":598:702  function _msgSender() internal view virtual returns (address payable) {... */\n    tag_84:\n        /* \"contracts/vendor/contracts/token/Context.sol\":651:666  address payable */\n      0x00\n        /* \"contracts/vendor/contracts/token/Context.sol\":685:695  msg.sender */\n      caller\n        /* \"contracts/vendor/contracts/token/Context.sol\":678:695  return msg.sender */\n      swap1\n      pop\n        /* \"contracts/vendor/contracts/token/Context.sol\":598:702  function _msgSender() internal view virtual returns (address payable) {... */\n      swap1\n      jump\t// out\n        /* \"contracts/contract/LinkToken.sol\":1612:1809  function _approve(... */\n    tag_85:\n        /* \"contracts/contract/LinkToken.sol\":1749:1756  spender */\n      dup2\n        /* \"contracts/contract/LinkToken.sol\":2046:2050  this */\n      address\n        /* \"contracts/contract/LinkToken.sol\":2025:2051  recipient != address(this) */\n      0xffffffffffffffffffffffffffffffffffffffff\n      and\n        /* \"contracts/contract/LinkToken.sol\":2025:2034  recipient */\n      dup2\n        /* \"contracts/contract/LinkToken.sol\":2025:2051  recipient != address(this) */\n      0xffffffffffffffffffffffffffffffffffffffff\n      and\n      eq\n      iszero\n        /* \"contracts/contract/LinkToken.sol\":2017:2108  require(recipient != address(this), \"LinkToken: transfer/approve to this contract address\") */\n      tag_135\n      jumpi\n      mload(0x40)\n      0x08c379a000000000000000000000000000000000000000000000000000000000\n      dup2\n      mstore\n      0x04\n      add\n      dup1\n      dup1\n      0x20\n      add\n      dup3\n      dup2\n      sub\n      dup3\n      mstore\n      0x34\n      dup2\n      mstore\n      0x20\n      add\n      dup1\n      data_28cff360b4dae60cc39540b1237a2713b0f7890e017115eadbfb502f879ccbb9\n      0x34\n      swap2\n      codecopy\n      0x40\n      add\n      swap2\n      pop\n      pop\n      mload(0x40)\n      dup1\n      swap2\n      sub\n      swap1\n      revert\n    tag_135:\n        /* \"contracts/contract/LinkToken.sol\":1766:1804  super._approve(owner, spender, amount) */\n      tag_137\n        /* \"contracts/contract/LinkToken.sol\":1781:1786  owner */\n      dup5\n        /* \"contracts/contract/LinkToken.sol\":1788:1795  spender */\n      dup5\n        /* \"contracts/contract/LinkToken.sol\":1797:1803  amount */\n      dup5\n        /* \"contracts/contract/LinkToken.sol\":1766:1780  super._approve */\n      tag_138\n        /* \"contracts/contract/LinkToken.sol\":1766:1804  super._approve(owner, spender, amount) */\n      jump\t// in\n    tag_137:\n        /* \"contracts/contract/LinkToken.sol\":1612:1809  function _approve(... */\n      pop\n      pop\n      pop\n      pop\n      jump\t// out\n        /* \"contracts/contract/LinkToken.sol\":1304:1511  function _transfer(... */\n    tag_90:\n        /* \"contracts/contract/LinkToken.sol\":1445:1454  recipient */\n      dup2\n        /* \"contracts/contract/LinkToken.sol\":2046:2050  this */\n      address\n        /* \"contracts/contract/LinkToken.sol\":2025:2051  recipient != address(this) */\n      0xffffffffffffffffffffffffffffffffffffffff\n      and\n        /* \"contracts/contract/LinkToken.sol\":2025:2034  recipient */\n      dup2\n        /* \"contracts/contract/LinkToken.sol\":2025:2051  recipient != address(this) */\n      0xffffffffffffffffffffffffffffffffffffffff\n      and\n      eq\n      iszero\n        /* \"contracts/contract/LinkToken.sol\":2017:2108  require(recipient != address(this), \"LinkToken: transfer/approve to this contract address\") */\n      tag_140\n      jumpi\n      mload(0x40)\n      0x08c379a000000000000000000000000000000000000000000000000000000000\n      dup2\n      mstore\n      0x04\n      add\n      dup1\n      dup1\n      0x20\n      add\n      dup3\n      dup2\n      sub\n      dup3\n      mstore\n      0x34\n      dup2\n      mstore\n      0x20\n      add\n      dup1\n      data_28cff360b4dae60cc39540b1237a2713b0f7890e017115eadbfb502f879ccbb9\n      0x34\n      swap2\n      codecopy\n      0x40\n      add\n      swap2\n      pop\n      pop\n      mload(0x40)\n      dup1\n      swap2\n      sub\n      swap1\n      revert\n    tag_140:\n        /* \"contracts/contract/LinkToken.sol\":1464:1506  super._transfer(sender, recipient, amount) */\n      tag_142\n        /* \"contracts/contract/LinkToken.sol\":1480:1486  sender */\n      dup5\n        /* \"contracts/contract/LinkToken.sol\":1488:1497  recipient */\n      dup5\n        /* \"contracts/contract/LinkToken.sol\":1499:1505  amount */\n      dup5\n        /* \"contracts/contract/LinkToken.sol\":1464:1479  super._transfer */\n      tag_143\n        /* \"contracts/contract/LinkToken.sol\":1464:1506  super._transfer(sender, recipient, amount) */\n      jump\t// in\n    tag_142:\n        /* \"contracts/contract/LinkToken.sol\":1304:1511  function _transfer(... */\n      pop\n      pop\n      pop\n      pop\n      jump\t// out\n        /* \"contracts/vendor/contracts/token/SafeMath.sol\":5432:5595  function sub(uint256 a, uint256 b, string memory errorMessage) internal pure returns (uint256) {... */\n    tag_95:\n        /* \"contracts/vendor/contracts/token/SafeMath.sol\":5518:5525  uint256 */\n      0x00\n        /* \"contracts/vendor/contracts/token/SafeMath.sol\":5550:5551  a */\n      dup4\n        /* \"contracts/vendor/contracts/token/SafeMath.sol\":5545:5546  b */\n      dup4\n        /* \"contracts/vendor/contracts/token/SafeMath.sol\":5545:5551  b <= a */\n      gt\n      iszero\n        /* \"contracts/vendor/contracts/token/SafeMath.sol\":5553:5565  errorMessage */\n      dup3\n        /* \"contracts/vendor/contracts/token/SafeMath.sol\":5537:5566  require(b <= a, errorMessage) */\n      swap1\n      tag_145\n      jumpi\n      mload(0x40)\n      0x08c379a000000000000000000000000000000000000000000000000000000000\n      dup2\n      mstore\n      0x04\n      add\n      dup1\n      dup1\n      0x20\n      add\n      dup3\n      dup2\n      sub\n      dup3\n      mstore\n      dup4\n      dup2\n      dup2\n      mload\n      dup2\n      mstore\n      0x20\n      add\n      swap2\n      pop\n      dup1\n      mload\n      swap1\n      0x20\n      add\n      swap1\n      dup1\n      dup4\n      dup4\n      0x00\n    tag_146:\n      dup4\n      dup2\n      lt\n      iszero\n      tag_148\n      jumpi\n      dup1\n      dup3\n      add\n      mload\n      dup2\n      dup5\n      add\n      mstore\n      0x20\n      dup2\n      add\n      swap1\n      pop\n      jump(tag_146)\n    tag_148:\n      pop\n      pop\n      pop\n      pop\n      swap1\n      pop\n      swap1\n      dup2\n      add\n      swap1\n      0x1f\n      and\n      dup1\n      iszero\n      tag_149\n      jumpi\n      dup1\n      dup3\n      sub\n      dup1\n      mload\n      0x01\n      dup4\n      0x20\n      sub\n      0x0100\n      exp\n      sub\n      not\n      and\n      dup2\n      mstore\n      0x20\n      add\n      swap2\n      pop\n    tag_149:\n      pop\n      swap3\n      pop\n      pop\n      pop\n      mload(0x40)\n      dup1\n      swap2\n      sub\n      swap1\n      revert\n    tag_145:\n      pop\n        /* \"contracts/vendor/contracts/token/SafeMath.sol\":5587:5588  b */\n      dup3\n        /* \"contracts/vendor/contracts/token/SafeMath.sol\":5583:5584  a */\n      dup5\n        /* \"contracts/vendor/contracts/token/SafeMath.sol\":5583:5588  a - b */\n      sub\n        /* \"contracts/vendor/contracts/token/SafeMath.sol\":5576:5588  return a - b */\n      swap1\n      pop\n        /* \"contracts/vendor/contracts/token/SafeMath.sol\":5432:5595  function sub(uint256 a, uint256 b, string memory errorMessage) internal pure returns (uint256) {... */\n      swap4\n      swap3\n      pop\n      pop\n      pop\n      jump\t// out\n        /* \"contracts/contract/ERC677.sol\":1064:1246  function isContract(... */\n    tag_109:\n        /* \"contracts/contract/ERC677.sol\":1140:1152  bool hasCode */\n      0x00\n        /* \"contracts/contract/ERC677.sol\":1162:1173  uint length */\n      dup1\n        /* \"contracts/contract/ERC677.sol\":1212:1216  addr */\n      dup3\n        /* \"contracts/contract/ERC677.sol\":1200:1217  extcodesize(addr) */\n      extcodesize\n        /* \"contracts/contract/ERC677.sol\":1190:1217  length := extcodesize(addr) */\n      swap1\n      pop\n        /* \"contracts/contract/ERC677.sol\":1240:1241  0 */\n      0x00\n        /* \"contracts/contract/ERC677.sol\":1231:1237  length */\n      dup2\n        /* \"contracts/contract/ERC677.sol\":1231:1241  length > 0 */\n      gt\n        /* \"contracts/contract/ERC677.sol\":1224:1241  return length > 0 */\n      swap2\n      pop\n      pop\n        /* \"contracts/contract/ERC677.sol\":1064:1246  function isContract(... */\n      swap2\n      swap1\n      pop\n      jump\t// out\n        /* \"contracts/contract/ERC677.sol\":849:1060  function contractFallback(... */\n    tag_112:\n        /* \"contracts/contract/ERC677.sol\":954:978  IERC677Receiver receiver */\n      0x00\n        /* \"contracts/contract/ERC677.sol\":997:999  to */\n      dup4\n        /* \"contracts/contract/ERC677.sol\":954:1000  IERC677Receiver receiver = IERC677Receiver(to) */\n      swap1\n      pop\n        /* \"contracts/contract/ERC677.sol\":1006:1014  receiver */\n      dup1\n        /* \"contracts/contract/ERC677.sol\":1006:1030  receiver.onTokenTransfer */\n      0xffffffffffffffffffffffffffffffffffffffff\n      and\n      0xa4c0ed36\n        /* \"contracts/contract/ERC677.sol\":1031:1041  msg.sender */\n      caller\n        /* \"contracts/contract/ERC677.sol\":1043:1048  value */\n      dup6\n        /* \"contracts/contract/ERC677.sol\":1050:1054  data */\n      dup6\n        /* \"contracts/contract/ERC677.sol\":1006:1055  receiver.onTokenTransfer(msg.sender, value, data) */\n      mload(0x40)\n      dup5\n      0xffffffff\n      and\n      0xe0\n      shl\n      dup2\n      mstore\n      0x04\n      add\n      dup1\n      dup5\n      0xffffffffffffffffffffffffffffffffffffffff\n      and\n      dup2\n      mstore\n      0x20\n      add\n      dup4\n      dup2\n      mstore\n      0x20\n      add\n      dup1\n      0x20\n      add\n      dup3\n      dup2\n      sub\n      dup3\n      mstore\n      dup4\n      dup2\n      dup2\n      mload\n      dup2\n      mstore\n      0x20\n      add\n      swap2\n      pop\n      dup1\n      mload\n      swap1\n      0x20\n      add\n      swap1\n      dup1\n      dup4\n      dup4\n      0x00\n    tag_152:\n      dup4\n      dup2\n      lt\n      iszero\n      tag_154\n      jumpi\n      dup1\n      dup3\n      add\n      mload\n      dup2\n      dup5\n      add\n      mstore\n      0x20\n      dup2\n      add\n      swap1\n      pop\n      jump(tag_152)\n    tag_154:\n      pop\n      pop\n      pop\n      pop\n      swap1\n      pop\n      swap1\n      dup2\n      add\n      swap1\n      0x1f\n      and\n      dup1\n      iszero\n      tag_155\n      jumpi\n      dup1\n      dup3\n      sub\n      dup1\n      mload\n      0x01\n      dup4\n      0x20\n      sub\n      0x0100\n      exp\n      sub\n      not\n      and\n      dup2\n      mstore\n      0x20\n      add\n      swap2\n      pop\n    tag_155:\n      pop\n      swap5\n      pop\n      pop\n      pop\n      pop\n      pop\n      0x00\n      mload(0x40)\n      dup1\n      dup4\n      sub\n      dup2\n      0x00\n      dup8\n      dup1\n      extcodesize\n      iszero\n      dup1\n      iszero\n      tag_156\n      jumpi\n      0x00\n      dup1\n      revert\n    tag_156:\n      pop\n      gas\n      call\n      iszero\n      dup1\n      iszero\n      tag_158\n      jumpi\n      returndatasize\n      0x00\n      dup1\n      returndatacopy\n      revert(0x00, returndatasize)\n    tag_158:\n      pop\n      pop\n      pop\n      pop\n        /* \"contracts/contract/ERC677.sol\":849:1060  function contractFallback(... */\n      pop\n      pop\n      pop\n      pop\n      jump\t// out\n        /* \"contracts/vendor/contracts/token/ERC20.sol\":9336:9676  function _approve(address owner, address spender, uint256 amount) internal virtual {... */\n    tag_138:\n        /* \"contracts/vendor/contracts/token/ERC20.sol\":9454:9455  0 */\n      0x00\n        /* \"contracts/vendor/contracts/token/ERC20.sol\":9437:9456  owner != address(0) */\n      0xffffffffffffffffffffffffffffffffffffffff\n      and\n        /* \"contracts/vendor/contracts/token/ERC20.sol\":9437:9442  owner */\n      dup4\n        /* \"contracts/vendor/contracts/token/ERC20.sol\":9437:9456  owner != address(0) */\n      0xffffffffffffffffffffffffffffffffffffffff\n      and\n      eq\n      iszero\n        /* \"contracts/vendor/contracts/token/ERC20.sol\":9429:9497  require(owner != address(0), \"ERC20: approve from the zero address\") */\n      tag_160\n      jumpi\n      mload(0x40)\n      0x08c379a000000000000000000000000000000000000000000000000000000000\n      dup2\n      mstore\n      0x04\n      add\n      dup1\n      dup1\n      0x20\n      add\n      dup3\n      dup2\n      sub\n      dup3\n      mstore\n      0x24\n      dup2\n      mstore\n      0x20\n      add\n      dup1\n      data_c953f4879035ed60e766b34720f656aab5c697b141d924c283124ecedb91c208\n      0x24\n      swap2\n      codecopy\n      0x40\n      add\n      swap2\n      pop\n      pop\n      mload(0x40)\n      dup1\n      swap2\n      sub\n      swap1\n      revert\n    tag_160:\n        /* \"contracts/vendor/contracts/token/ERC20.sol\":9534:9535  0 */\n      0x00\n        /* \"contracts/vendor/contracts/token/ERC20.sol\":9515:9536  spender != address(0) */\n      0xffffffffffffffffffffffffffffffffffffffff\n      and\n        /* \"contracts/vendor/contracts/token/ERC20.sol\":9515:9522  spender */\n      dup3\n        /* \"contracts/vendor/contracts/token/ERC20.sol\":9515:9536  spender != address(0) */\n      0xffffffffffffffffffffffffffffffffffffffff\n      and\n      eq\n      iszero\n        /* \"contracts/vendor/contracts/token/ERC20.sol\":9507:9575  require(spender != address(0), \"ERC20: approve to the zero address\") */\n      tag_161\n      jumpi\n      mload(0x40)\n      0x08c379a000000000000000000000000000000000000000000000000000000000\n      dup2\n      mstore\n      0x04\n      add\n      dup1\n      dup1\n      0x20\n      add\n      dup3\n      dup2\n      sub\n      dup3\n      mstore\n      0x22\n      dup2\n      mstore\n      0x20\n      add\n      dup1\n      data_24883cc5fe64ace9d0df1893501ecb93c77180f0ff69cca79affb3c316dc8029\n      0x22\n      swap2\n      codecopy\n      0x40\n      add\n      swap2\n      pop\n      pop\n      mload(0x40)\n      dup1\n      swap2\n      sub\n      swap1\n      revert\n    tag_161:\n        /* \"contracts/vendor/contracts/token/ERC20.sol\":9616:9622  amount */\n      dup1\n        /* \"contracts/vendor/contracts/token/ERC20.sol\":9586:9597  _allowances */\n      0x01\n        /* \"contracts/vendor/contracts/token/ERC20.sol\":9586:9604  _allowances[owner] */\n      0x00\n        /* \"contracts/vendor/contracts/token/ERC20.sol\":9598:9603  owner */\n      dup6\n        /* \"contracts/vendor/contracts/token/ERC20.sol\":9586:9604  _allowances[owner] */\n      0xffffffffffffffffffffffffffffffffffffffff\n      and\n      0xffffffffffffffffffffffffffffffffffffffff\n      and\n      dup2\n      mstore\n      0x20\n      add\n      swap1\n      dup2\n      mstore\n      0x20\n      add\n      0x00\n      keccak256\n        /* \"contracts/vendor/contracts/token/ERC20.sol\":9586:9613  _allowances[owner][spender] */\n      0x00\n        /* \"contracts/vendor/contracts/token/ERC20.sol\":9605:9612  spender */\n      dup5\n        /* \"contracts/vendor/contracts/token/ERC20.sol\":9586:9613  _allowances[owner][spender] */\n      0xffffffffffffffffffffffffffffffffffffffff\n      and\n      0xffffffffffffffffffffffffffffffffffffffff\n      and\n      dup2\n      mstore\n      0x20\n      add\n      swap1\n      dup2\n      mstore\n      0x20\n      add\n      0x00\n      keccak256\n        /* \"contracts/vendor/contracts/token/ERC20.sol\":9586:9622  _allowances[owner][spender] = amount */\n      dup2\n      swap1\n      sstore\n      pop\n        /* \"contracts/vendor/contracts/token/ERC20.sol\":9653:9660  spender */\n      dup2\n        /* \"contracts/vendor/contracts/token/ERC20.sol\":9637:9669  Approval(owner, spender, amount) */\n      0xffffffffffffffffffffffffffffffffffffffff\n      and\n        /* \"contracts/vendor/contracts/token/ERC20.sol\":9646:9651  owner */\n      dup4\n        /* \"contracts/vendor/contracts/token/ERC20.sol\":9637:9669  Approval(owner, spender, amount) */\n      0xffffffffffffffffffffffffffffffffffffffff\n      and\n      0x8c5be1e5ebec7d5bd14f71427d1e84f3dd0314c0f7b2291e5b200ac8c7c3b925\n        /* \"contracts/vendor/contracts/token/ERC20.sol\":9662:9668  amount */\n      dup4\n        /* \"contracts/vendor/contracts/token/ERC20.sol\":9637:9669  Approval(owner, spender, amount) */\n      mload(0x40)\n      dup1\n      dup3\n      dup2\n      mstore\n      0x20\n      add\n      swap2\n      pop\n      pop\n      mload(0x40)\n      dup1\n      swap2\n      sub\n      swap1\n      log3\n        /* \"contracts/vendor/contracts/token/ERC20.sol\":9336:9676  function _approve(address owner, address spender, uint256 amount) internal virtual {... */\n      pop\n      pop\n      pop\n      jump\t// out\n        /* \"contracts/vendor/contracts/token/ERC20.sol\":7012:7542  function _transfer(address sender, address recipient, uint256 amount) internal virtual {... */\n    tag_143:\n        /* \"contracts/vendor/contracts/token/ERC20.sol\":7135:7136  0 */\n      0x00\n        /* \"contracts/vendor/contracts/token/ERC20.sol\":7117:7137  sender != address(0) */\n      0xffffffffffffffffffffffffffffffffffffffff\n      and\n        /* \"contracts/vendor/contracts/token/ERC20.sol\":7117:7123  sender */\n      dup4\n        /* \"contracts/vendor/contracts/token/ERC20.sol\":7117:7137  sender != address(0) */\n      0xffffffffffffffffffffffffffffffffffffffff\n      and\n      eq\n      iszero\n        /* \"contracts/vendor/contracts/token/ERC20.sol\":7109:7179  require(sender != address(0), \"ERC20: transfer from the zero address\") */\n      tag_163\n      jumpi\n      mload(0x40)\n      0x08c379a000000000000000000000000000000000000000000000000000000000\n      dup2\n      mstore\n      0x04\n      add\n      dup1\n      dup1\n      0x20\n      add\n      dup3\n      dup2\n      sub\n      dup3\n      mstore\n      0x25\n      dup2\n      mstore\n      0x20\n      add\n      dup1\n      data_baecc556b46f4ed0f2b4cb599d60785ac8563dd2dc0a5bf12edea1c39e5e1fea\n      0x25\n      swap2\n      codecopy\n      0x40\n      add\n      swap2\n      pop\n      pop\n      mload(0x40)\n      dup1\n      swap2\n      sub\n      swap1\n      revert\n    tag_163:\n        /* \"contracts/vendor/contracts/token/ERC20.sol\":7218:7219  0 */\n      0x00\n        /* \"contracts/vendor/contracts/token/ERC20.sol\":7197:7220  recipient != address(0) */\n      0xffffffffffffffffffffffffffffffffffffffff\n      and\n        /* \"contracts/vendor/contracts/token/ERC20.sol\":7197:7206  recipient */\n      dup3\n        /* \"contracts/vendor/contracts/token/ERC20.sol\":7197:7220  recipient != address(0) */\n      0xffffffffffffffffffffffffffffffffffffffff\n      and\n      eq\n      iszero\n        /* \"contracts/vendor/contracts/token/ERC20.sol\":7189:7260  require(recipient != address(0), \"ERC20: transfer to the zero address\") */\n      tag_164\n      jumpi\n      mload(0x40)\n      0x08c379a000000000000000000000000000000000000000000000000000000000\n      dup2\n      mstore\n      0x04\n      add\n      dup1\n      dup1\n      0x20\n      add\n      dup3\n      dup2\n      sub\n      dup3\n      mstore\n      0x23\n      dup2\n      mstore\n      0x20\n      add\n      dup1\n      data_0557e210f7a69a685100a7e4e3d0a7024c546085cee28910fd17d0b081d9516f\n      0x23\n      swap2\n      codecopy\n      0x40\n      add\n      swap2\n      pop\n      pop\n      mload(0x40)\n      dup1\n      swap2\n      sub\n      swap1\n      revert\n    tag_164:\n        /* \"contracts/vendor/contracts/token/ERC20.sol\":7271:7318  _beforeTokenTransfer(sender, recipient, amount) */\n      tag_165\n        /* \"contracts/vendor/contracts/token/ERC20.sol\":7292:7298  sender */\n      dup4\n        /* \"contracts/vendor/contracts/token/ERC20.sol\":7300:7309  recipient */\n      dup4\n        /* \"contracts/vendor/contracts/token/ERC20.sol\":7311:7317  amount */\n      dup4\n        /* \"contracts/vendor/contracts/token/ERC20.sol\":7271:7291  _beforeTokenTransfer */\n      tag_166\n        /* \"contracts/vendor/contracts/token/ERC20.sol\":7271:7318  _beforeTokenTransfer(sender, recipient, amount) */\n      jump\t// in\n    tag_165:\n        /* \"contracts/vendor/contracts/token/ERC20.sol\":7349:7420  _balances[sender].sub(amount, \"ERC20: transfer amount exceeds balance\") */\n      tag_167\n        /* \"contracts/vendor/contracts/token/ERC20.sol\":7371:7377  amount */\n      dup2\n        /* \"contracts/vendor/contracts/token/ERC20.sol\":7349:7420  _balances[sender].sub(amount, \"ERC20: transfer amount exceeds balance\") */\n      mload(0x40)\n      dup1\n      0x60\n      add\n      0x40\n      mstore\n      dup1\n      0x26\n      dup2\n      mstore\n      0x20\n      add\n      data_4107e8a8b9e94bf8ff83080ddec1c0bffe897ebc2241b89d44f66b3d274088b6\n      0x26\n      swap2\n      codecopy\n        /* \"contracts/vendor/contracts/token/ERC20.sol\":7349:7358  _balances */\n      0x00\n        /* \"contracts/vendor/contracts/token/ERC20.sol\":7349:7366  _balances[sender] */\n      dup1\n        /* \"contracts/vendor/contracts/token/ERC20.sol\":7359:7365  sender */\n      dup8\n        /* \"contracts/vendor/contracts/token/ERC20.sol\":7349:7366  _balances[sender] */\n      0xffffffffffffffffffffffffffffffffffffffff\n      and\n      0xffffffffffffffffffffffffffffffffffffffff\n      and\n      dup2\n      mstore\n      0x20\n      add\n      swap1\n      dup2\n      mstore\n      0x20\n      add\n      0x00\n      keccak256\n      sload\n        /* \"contracts/vendor/contracts/token/ERC20.sol\":7349:7370  _balances[sender].sub */\n      tag_95\n      swap1\n        /* \"contracts/vendor/contracts/token/ERC20.sol\":7349:7420  _balances[sender].sub(amount, \"ERC20: transfer amount exceeds balance\") */\n      swap3\n      swap2\n      swap1\n      0xffffffff\n      and\n      jump\t// in\n    tag_167:\n        /* \"contracts/vendor/contracts/token/ERC20.sol\":7329:7338  _balances */\n      0x00\n        /* \"contracts/vendor/contracts/token/ERC20.sol\":7329:7346  _balances[sender] */\n      dup1\n        /* \"contracts/vendor/contracts/token/ERC20.sol\":7339:7345  sender */\n      dup6\n        /* \"contracts/vendor/contracts/token/ERC20.sol\":7329:7346  _balances[sender] */\n      0xffffffffffffffffffffffffffffffffffffffff\n      and\n      0xffffffffffffffffffffffffffffffffffffffff\n      and\n      dup2\n      mstore\n      0x20\n      add\n      swap1\n      dup2\n      mstore\n      0x20\n      add\n      0x00\n      keccak256\n        /* \"contracts/vendor/contracts/token/ERC20.sol\":7329:7420  _balances[sender] = _balances[sender].sub(amount, \"ERC20: transfer amount exceeds balance\") */\n      dup2\n      swap1\n      sstore\n      pop\n        /* \"contracts/vendor/contracts/token/ERC20.sol\":7453:7485  _balances[recipient].add(amount) */\n      tag_168\n        /* \"contracts/vendor/contracts/token/ERC20.sol\":7478:7484  amount */\n      dup2\n        /* \"contracts/vendor/contracts/token/ERC20.sol\":7453:7462  _balances */\n      0x00\n        /* \"contracts/vendor/contracts/token/ERC20.sol\":7453:7473  _balances[recipient] */\n      dup1\n        /* \"contracts/vendor/contracts/token/ERC20.sol\":7463:7472  recipient */\n      dup6\n        /* \"contracts/vendor/contracts/token/ERC20.sol\":7453:7473  _balances[recipient] */\n      0xffffffffffffffffffffffffffffffffffffffff\n      and\n      0xffffffffffffffffffffffffffffffffffffffff\n      and\n      dup2\n      mstore\n      0x20\n      add\n      swap1\n      dup2\n      mstore\n      0x20\n      add\n      0x00\n      keccak256\n      sload\n        /* \"contracts/vendor/contracts/token/ERC20.sol\":7453:7477  _balances[recipient].add */\n      tag_76\n      swap1\n        /* \"contracts/vendor/contracts/token/ERC20.sol\":7453:7485  _balances[recipient].add(amount) */\n      swap2\n      swap1\n      0xffffffff\n      and\n      jump\t// in\n    tag_168:\n        /* \"contracts/vendor/contracts/token/ERC20.sol\":7430:7439  _balances */\n      0x00\n        /* \"contracts/vendor/contracts/token/ERC20.sol\":7430:7450  _balances[recipient] */\n      dup1\n        /* \"contracts/vendor/contracts/token/ERC20.sol\":7440:7449  recipient */\n      dup5\n        /* \"contracts/vendor/contracts/token/ERC20.sol\":7430:7450  _balances[recipient] */\n      0xffffffffffffffffffffffffffffffffffffffff\n      and\n      0xffffffffffffffffffffffffffffffffffffffff\n      and\n      dup2\n      mstore\n      0x20\n      add\n      swap1\n      dup2\n      mstore\n      0x20\n      add\n      0x00\n      keccak256\n        /* \"contracts/vendor/contracts/token/ERC20.sol\":7430:7485  _balances[recipient] = _balances[recipient].add(amount) */\n      dup2\n      swap1\n      sstore\n      pop\n        /* \"contracts/vendor/contracts/token/ERC20.sol\":7517:7526  recipient */\n      dup2\n        /* \"contracts/vendor/contracts/token/ERC20.sol\":7500:7535  Transfer(sender, recipient, amount) */\n      0xffffffffffffffffffffffffffffffffffffffff\n      and\n        /* \"contracts/vendor/contracts/token/ERC20.sol\":7509:7515  sender */\n      dup4\n        /* \"contracts/vendor/contracts/token/ERC20.sol\":7500:7535  Transfer(sender, recipient, amount) */\n      0xffffffffffffffffffffffffffffffffffffffff\n      and\n      0xddf252ad1be2c89b69c2b068fc378daa952ba7f163c4a11628f55a4df523b3ef\n        /* \"contracts/vendor/contracts/token/ERC20.sol\":7528:7534  amount */\n      dup4\n        /* \"contracts/vendor/contracts/token/ERC20.sol\":7500:7535  Transfer(sender, recipient, amount) */\n      mload(0x40)\n      dup1\n      dup3\n      dup2\n      mstore\n      0x20\n      add\n      swap2\n      pop\n      pop\n      mload(0x40)\n      dup1\n      swap2\n      sub\n      swap1\n      log3\n        /* \"contracts/vendor/contracts/token/ERC20.sol\":7012:7542  function _transfer(address sender, address recipient, uint256 amount) internal virtual {... */\n      pop\n      pop\n      pop\n      jump\t// out\n        /* \"contracts/vendor/contracts/token/ERC20.sol\":10682:10774  function _beforeTokenTransfer(address from, address to, uint256 amount) internal virtual { } */\n    tag_166:\n      pop\n      pop\n      pop\n      jump\t// out\n    stop\n    data_0557e210f7a69a685100a7e4e3d0a7024c546085cee28910fd17d0b081d9516f 45524332303a207472616e7366657220746f20746865207a65726f2061646472657373\n    data_24883cc5fe64ace9d0df1893501ecb93c77180f0ff69cca79affb3c316dc8029 45524332303a20617070726f766520746f20746865207a65726f2061646472657373\n    data_28cff360b4dae60cc39540b1237a2713b0f7890e017115eadbfb502f879ccbb9 4c696e6b546f6b656e3a207472616e736665722f617070726f766520746f207468697320636f6e74726163742061646472657373\n    data_4107e8a8b9e94bf8ff83080ddec1c0bffe897ebc2241b89d44f66b3d274088b6 45524332303a207472616e7366657220616d6f756e7420657863656564732062616c616e6365\n    data_974d1b4421da69cc60b481194f0dad36a5bb4e23da810da7a7fb30cdba178330 45524332303a207472616e7366657220616d6f756e74206578636565647320616c6c6f77616e6365\n    data_baecc556b46f4ed0f2b4cb599d60785ac8563dd2dc0a5bf12edea1c39e5e1fea 45524332303a207472616e736665722066726f6d20746865207a65726f2061646472657373\n    data_c953f4879035ed60e766b34720f656aab5c697b141d924c283124ecedb91c208 45524332303a20617070726f76652066726f6d20746865207a65726f2061646472657373\n    data_f8b476f7d28209d77d4a4ac1fe36b9f8259aa1bb6bddfa6e89de7e51615cf8a8 45524332303a2064656372656173656420616c6c6f77616e63652062656c6f77207a65726f\n\n    auxdata: 0xa26469706673582212204c9df1f1acbe832d95e7b38b685ae4e0f09f2c2f865bfd46acfccdbddca46abe64736f6c63430007060033\n}\n",
				"bytecode": {
					"linkReferences": {},
					"object": "60806040523480156200001157600080fd5b506040518060400160405280600f81526020017f436861696e4c696e6b20546f6b656e00000000000000000000000000000000008152506040518060400160405280600481526020017f4c494e4b0000000000000000000000000000000000000000000000000000000081525081600390805190602001906200009692919062000370565b508060049080519060200190620000af92919062000370565b506012600560006101000a81548160ff021916908360ff1602179055505050620000de620000e460201b60201c565b62000426565b62000102336b033b2e3c9fd0803ce80000006200010460201b60201c565b565b600073ffffffffffffffffffffffffffffffffffffffff168273ffffffffffffffffffffffffffffffffffffffff161415620001a8576040517f08c379a000000000000000000000000000000000000000000000000000000000815260040180806020018281038252601f8152602001807f45524332303a206d696e7420746f20746865207a65726f20616464726573730081525060200191505060405180910390fd5b620001bc60008383620002e260201b60201c565b620001d881600254620002e760201b62000d9b1790919060201c565b60028190555062000236816000808573ffffffffffffffffffffffffffffffffffffffff1673ffffffffffffffffffffffffffffffffffffffff16815260200190815260200160002054620002e760201b62000d9b1790919060201c565b6000808473ffffffffffffffffffffffffffffffffffffffff1673ffffffffffffffffffffffffffffffffffffffff168152602001908152602001600020819055508173ffffffffffffffffffffffffffffffffffffffff16600073ffffffffffffffffffffffffffffffffffffffff167fddf252ad1be2c89b69c2b068fc378daa952ba7f163c4a11628f55a4df523b3ef836040518082815260200191505060405180910390a35050565b505050565b60008082840190508381101562000366576040517f08c379a000000000000000000000000000000000000000000000000000000000815260040180806020018281038252601b8152602001807f536166654d6174683a206164646974696f6e206f766572666c6f77000000000081525060200191505060405180910390fd5b8091505092915050565b828054600181600116156101000203166002900490600052602060002090601f016020900481019282620003a85760008555620003f4565b82601f10620003c357805160ff1916838001178555620003f4565b82800160010185558215620003f4579182015b82811115620003f3578251825591602001919060010190620003d6565b5b50905062000403919062000407565b5090565b5b808211156200042257600081600090555060010162000408565b5090565b61174f80620004366000396000f3fe608060405234801561001057600080fd5b50600436106100f55760003560e01c80634000aea011610097578063a457c2d711610066578063a457c2d7146105c5578063a9059cbb14610629578063d73dd6231461068d578063dd62ed3e146106f1576100f5565b80634000aea01461038b578063661884631461048657806370a08231146104ea57806395d89b4114610542576100f5565b8063181f5a77116100d3578063181f5a77146101ff57806323b872dd14610282578063313ce567146103065780633950935114610327576100f5565b806306fdde03146100fa578063095ea7b31461017d57806318160ddd146101e1575b600080fd5b610102610769565b6040518080602001828103825283818151815260200191508051906020019080838360005b83811015610142578082015181840152602081019050610127565b50505050905090810190601f16801561016f5780820380516001836020036101000a031916815260200191505b509250505060405180910390f35b6101c96004803603604081101561019357600080fd5b81019080803573ffffffffffffffffffffffffffffffffffffffff1690602001909291908035906020019092919050505061080b565b60405180821515815260200191505060405180910390f35b6101e9610829565b6040518082815260200191505060405180910390f35b610207610833565b6040518080602001828103825283818151815260200191508051906020019080838360005b8381101561024757808201518184015260208101905061022c565b50505050905090810190601f1680156102745780820380516001836020036101000a031916815260200191505b509250505060405180910390f35b6102ee6004803603606081101561029857600080fd5b81019080803573ffffffffffffffffffffffffffffffffffffffff169060200190929190803573ffffffffffffffffffffffffffffffffffffffff16906020019092919080359060200190929190505050610870565b60405180821515815260200191505060405180910390f35b61030e610949565b604051808260ff16815260200191505060405180910390f35b6103736004803603604081101561033d57600080fd5b81019080803573ffffffffffffffffffffffffffffffffffffffff16906020019092919080359060200190929190505050610960565b60405180821515815260200191505060405180910390f35b61046e600480360360608110156103a157600080fd5b81019080803573ffffffffffffffffffffffffffffffffffffffff16906020019092919080359060200190929190803590602001906401000000008111156103e857600080fd5b8201836020820111156103fa57600080fd5b8035906020019184600183028401116401000000008311171561041c57600080fd5b91908080601f016020809104026020016040519081016040528093929190818152602001838380828437600081840152601f19601f820116905080830192505050505050509192919290505050610a13565b60405180821515815260200191505060405180910390f35b6104d26004803603604081101561049c57600080fd5b81019080803573ffffffffffffffffffffffffffffffffffffffff16906020019092919080359060200190929190505050610b17565b60405180821515815260200191505060405180910390f35b61052c6004803603602081101561050057600080fd5b81019080803573ffffffffffffffffffffffffffffffffffffffff169060200190929190505050610b2b565b6040518082815260200191505060405180910390f35b61054a610b73565b6040518080602001828103825283818151815260200191508051906020019080838360005b8381101561058a57808201518184015260208101905061056f565b50505050905090810190601f1680156105b75780820380516001836020036101000a031916815260200191505b509250505060405180910390f35b610611600480360360408110156105db57600080fd5b81019080803573ffffffffffffffffffffffffffffffffffffffff16906020019092919080359060200190929190505050610c15565b60405180821515815260200191505060405180910390f35b6106756004803603604081101561063f57600080fd5b81019080803573ffffffffffffffffffffffffffffffffffffffff16906020019092919080359060200190929190505050610ce2565b60405180821515815260200191505060405180910390f35b6106d9600480360360408110156106a357600080fd5b81019080803573ffffffffffffffffffffffffffffffffffffffff16906020019092919080359060200190929190505050610d00565b60405180821515815260200191505060405180910390f35b6107536004803603604081101561070757600080fd5b81019080803573ffffffffffffffffffffffffffffffffffffffff169060200190929190803573ffffffffffffffffffffffffffffffffffffffff169060200190929190505050610d14565b6040518082815260200191505060405180910390f35b606060038054600181600116156101000203166002900480601f0160208091040260200160405190810160405280929190818152602001828054600181600116156101000203166002900480156108015780601f106107d657610100808354040283529160200191610801565b820191906000526020600020905b8154815290600101906020018083116107e457829003601f168201915b5050505050905090565b600061081f610818610e23565b8484610e2b565b6001905092915050565b6000600254905090565b60606040518060400160405280600f81526020017f4c696e6b546f6b656e20302e302e330000000000000000000000000000000000815250905090565b600061087d848484610ec2565b61093e84610889610e23565b6109398560405180606001604052806028815260200161168460289139600160008b73ffffffffffffffffffffffffffffffffffffffff1673ffffffffffffffffffffffffffffffffffffffff16815260200190815260200160002060006108ef610e23565b73ffffffffffffffffffffffffffffffffffffffff1673ffffffffffffffffffffffffffffffffffffffff16815260200190815260200160002054610f599092919063ffffffff16565b610e2b565b600190509392505050565b6000600560009054906101000a900460ff16905090565b6000610a0961096d610e23565b84610a04856001600061097e610e23565b73ffffffffffffffffffffffffffffffffffffffff1673ffffffffffffffffffffffffffffffffffffffff16815260200190815260200160002060008973ffffffffffffffffffffffffffffffffffffffff1673ffffffffffffffffffffffffffffffffffffffff16815260200190815260200160002054610d9b90919063ffffffff16565b610e2b565b6001905092915050565b6000610a1f8484610ce2565b508373ffffffffffffffffffffffffffffffffffffffff163373ffffffffffffffffffffffffffffffffffffffff167fe19260aff97b920c7df27010903aeb9c8d2be5d310a2c67824cf3f15396e4c1685856040518083815260200180602001828103825283818151815260200191508051906020019080838360005b83811015610ab7578082015181840152602081019050610a9c565b50505050905090810190601f168015610ae45780820380516001836020036101000a031916815260200191505b50935050505060405180910390a3610afb84611013565b15610b0c57610b0b848484611026565b5b600190509392505050565b6000610b238383610c15565b905092915050565b60008060008373ffffffffffffffffffffffffffffffffffffffff1673ffffffffffffffffffffffffffffffffffffffff168152602001908152602001600020549050919050565b606060048054600181600116156101000203166002900480601f016020809104026020016040519081016040528092919081815260200182805460018160011615610100020316600290048015610c0b5780601f10610be057610100808354040283529160200191610c0b565b820191906000526020600020905b815481529060010190602001808311610bee57829003601f168201915b5050505050905090565b6000610cd8610c22610e23565b84610cd3856040518060600160405280602581526020016116f56025913960016000610c4c610e23565b73ffffffffffffffffffffffffffffffffffffffff1673ffffffffffffffffffffffffffffffffffffffff16815260200190815260200160002060008a73ffffffffffffffffffffffffffffffffffffffff1673ffffffffffffffffffffffffffffffffffffffff16815260200190815260200160002054610f599092919063ffffffff16565b610e2b565b6001905092915050565b6000610cf6610cef610e23565b8484610ec2565b6001905092915050565b6000610d0c8383610960565b905092915050565b6000600160008473ffffffffffffffffffffffffffffffffffffffff1673ffffffffffffffffffffffffffffffffffffffff16815260200190815260200160002060008373ffffffffffffffffffffffffffffffffffffffff1673ffffffffffffffffffffffffffffffffffffffff16815260200190815260200160002054905092915050565b600080828401905083811015610e19576040517f08c379a000000000000000000000000000000000000000000000000000000000815260040180806020018281038252601b8152602001807f536166654d6174683a206164646974696f6e206f766572666c6f77000000000081525060200191505060405180910390fd5b8091505092915050565b600033905090565b813073ffffffffffffffffffffffffffffffffffffffff168173ffffffffffffffffffffffffffffffffffffffff161415610eb1576040517f08c379a000000000000000000000000000000000000000000000000000000000815260040180806020018281038252603481526020018061162a6034913960400191505060405180910390fd5b610ebc848484611127565b50505050565b813073ffffffffffffffffffffffffffffffffffffffff168173ffffffffffffffffffffffffffffffffffffffff161415610f48576040517f08c379a000000000000000000000000000000000000000000000000000000000815260040180806020018281038252603481526020018061162a6034913960400191505060405180910390fd5b610f5384848461131e565b50505050565b6000838311158290611006576040517f08c379a00000000000000000000000000000000000000000000000000000000081526004018080602001828103825283818151815260200191508051906020019080838360005b83811015610fcb578082015181840152602081019050610fb0565b50505050905090810190601f168015610ff85780820380516001836020036101000a031916815260200191505b509250505060405180910390fd5b5082840390509392505050565b600080823b905060008111915050919050565b60008390508073ffffffffffffffffffffffffffffffffffffffff1663a4c0ed363385856040518463ffffffff1660e01b8152600401808473ffffffffffffffffffffffffffffffffffffffff16815260200183815260200180602001828103825283818151815260200191508051906020019080838360005b838110156110bb5780820151818401526020810190506110a0565b50505050905090810190601f1680156110e85780820380516001836020036101000a031916815260200191505b50945050505050600060405180830381600087803b15801561110957600080fd5b505af115801561111d573d6000803e3d6000fd5b5050505050505050565b600073ffffffffffffffffffffffffffffffffffffffff168373ffffffffffffffffffffffffffffffffffffffff1614156111ad576040517f08c379a00000000000000000000000000000000000000000000000000000000081526004018080602001828103825260248152602001806116d16024913960400191505060405180910390fd5b600073ffffffffffffffffffffffffffffffffffffffff168273ffffffffffffffffffffffffffffffffffffffff161415611233576040517f08c379a00000000000000000000000000000000000000000000000000000000081526004018080602001828103825260228152602001806116086022913960400191505060405180910390fd5b80600160008573ffffffffffffffffffffffffffffffffffffffff1673ffffffffffffffffffffffffffffffffffffffff16815260200190815260200160002060008473ffffffffffffffffffffffffffffffffffffffff1673ffffffffffffffffffffffffffffffffffffffff168152602001908152602001600020819055508173ffffffffffffffffffffffffffffffffffffffff168373ffffffffffffffffffffffffffffffffffffffff167f8c5be1e5ebec7d5bd14f71427d1e84f3dd0314c0f7b2291e5b200ac8c7c3b925836040518082815260200191505060405180910390a3505050565b600073ffffffffffffffffffffffffffffffffffffffff168373ffffffffffffffffffffffffffffffffffffffff1614156113a4576040517f08c379a00000000000000000000000000000000000000000000000000000000081526004018080602001828103825260258152602001806116ac6025913960400191505060405180910390fd5b600073ffffffffffffffffffffffffffffffffffffffff168273ffffffffffffffffffffffffffffffffffffffff16141561142a576040517f08c379a00000000000000000000000000000000000000000000000000000000081526004018080602001828103825260238152602001806115e56023913960400191505060405180910390fd5b6114358383836115df565b6114a08160405180606001604052806026815260200161165e602691396000808773ffffffffffffffffffffffffffffffffffffffff1673ffffffffffffffffffffffffffffffffffffffff16815260200190815260200160002054610f599092919063ffffffff16565b6000808573ffffffffffffffffffffffffffffffffffffffff1673ffffffffffffffffffffffffffffffffffffffff16815260200190815260200160002081905550611533816000808573ffffffffffffffffffffffffffffffffffffffff1673ffffffffffffffffffffffffffffffffffffffff16815260200190815260200160002054610d9b90919063ffffffff16565b6000808473ffffffffffffffffffffffffffffffffffffffff1673ffffffffffffffffffffffffffffffffffffffff168152602001908152602001600020819055508173ffffffffffffffffffffffffffffffffffffffff168373ffffffffffffffffffffffffffffffffffffffff167fddf252ad1be2c89b69c2b068fc378daa952ba7f163c4a11628f55a4df523b3ef836040518082815260200191505060405180910390a3505050565b50505056fe45524332303a207472616e7366657220746f20746865207a65726f206164647265737345524332303a20617070726f766520746f20746865207a65726f20616464726573734c696e6b546f6b656e3a207472616e736665722f617070726f766520746f207468697320636f6e7472616374206164647265737345524332303a207472616e7366657220616d6f756e7420657863656564732062616c616e636545524332303a207472616e7366657220616d6f756e74206578636565647320616c6c6f77616e636545524332303a207472616e736665722066726f6d20746865207a65726f206164647265737345524332303a20617070726f76652066726f6d20746865207a65726f206164647265737345524332303a2064656372656173656420616c6c6f77616e63652062656c6f77207a65726fa26469706673582212204c9df1f1acbe832d95e7b38b685ae4e0f09f2c2f865bfd46acfccdbddca46abe64736f6c63430007060033",
					"opcodes": "PUSH1 0x80 PUSH1 0x40 MSTORE CALLVALUE DUP1 ISZERO PUSH3 0x11 JUMPI PUSH1 0x0 DUP1 REVERT JUMPDEST POP PUSH1 0x40 MLOAD DUP1 PUSH1 0x40 ADD PUSH1 0x40 MSTORE DUP1 PUSH1 0xF DUP2 MSTORE PUSH1 0x20 ADD PUSH32 0x436861696E4C696E6B20546F6B656E0000000000000000000000000000000000 DUP2 MSTORE POP PUSH1 0x40 MLOAD DUP1 PUSH1 0x40 ADD PUSH1 0x40 MSTORE DUP1 PUSH1 0x4 DUP2 MSTORE PUSH1 0x20 ADD PUSH32 0x4C494E4B00000000000000000000000000000000000000000000000000000000 DUP2 MSTORE POP DUP2 PUSH1 0x3 SWAP1 DUP1 MLOAD SWAP1 PUSH1 0x20 ADD SWAP1 PUSH3 0x96 SWAP3 SWAP2 SWAP1 PUSH3 0x370 JUMP JUMPDEST POP DUP1 PUSH1 0x4 SWAP1 DUP1 MLOAD SWAP1 PUSH1 0x20 ADD SWAP1 PUSH3 0xAF SWAP3 SWAP2 SWAP1 PUSH3 0x370 JUMP JUMPDEST POP PUSH1 0x12 PUSH1 0x5 PUSH1 0x0 PUSH2 0x100 EXP DUP2 SLOAD DUP2 PUSH1 0xFF MUL NOT AND SWAP1 DUP4 PUSH1 0xFF AND MUL OR SWAP1 SSTORE POP POP POP PUSH3 0xDE PUSH3 0xE4 PUSH1 0x20 SHL PUSH1 0x20 SHR JUMP JUMPDEST PUSH3 0x426 JUMP JUMPDEST PUSH3 0x102 CALLER PUSH12 0x33B2E3C9FD0803CE8000000 PUSH3 0x104 PUSH1 0x20 SHL PUSH1 0x20 SHR JUMP JUMPDEST JUMP JUMPDEST PUSH1 0x0 PUSH20 0xFFFFFFFFFFFFFFFFFFFFFFFFFFFFFFFFFFFFFFFF AND DUP3 PUSH20 0xFFFFFFFFFFFFFFFFFFFFFFFFFFFFFFFFFFFFFFFF AND EQ ISZERO PUSH3 0x1A8 JUMPI PUSH1 0x40 MLOAD PUSH32 0x8C379A000000000000000000000000000000000000000000000000000000000 DUP2 MSTORE PUSH1 0x4 ADD DUP1 DUP1 PUSH1 0x20 ADD DUP3 DUP2 SUB DUP3 MSTORE PUSH1 0x1F DUP2 MSTORE PUSH1 0x20 ADD DUP1 PUSH32 0x45524332303A206D696E7420746F20746865207A65726F206164647265737300 DUP2 MSTORE POP PUSH1 0x20 ADD SWAP2 POP POP PUSH1 0x40 MLOAD DUP1 SWAP2 SUB SWAP1 REVERT JUMPDEST PUSH3 0x1BC PUSH1 0x0 DUP4 DUP4 PUSH3 0x2E2 PUSH1 0x20 SHL PUSH1 0x20 SHR JUMP JUMPDEST PUSH3 0x1D8 DUP2 PUSH1 0x2 SLOAD PUSH3 0x2E7 PUSH1 0x20 SHL PUSH3 0xD9B OR SWAP1 SWAP2 SWAP1 PUSH1 0x20 SHR JUMP JUMPDEST PUSH1 0x2 DUP2 SWAP1 SSTORE POP PUSH3 0x236 DUP2 PUSH1 0x0 DUP1 DUP6 PUSH20 0xFFFFFFFFFFFFFFFFFFFFFFFFFFFFFFFFFFFFFFFF AND PUSH20 0xFFFFFFFFFFFFFFFFFFFFFFFFFFFFFFFFFFFFFFFF AND DUP2 MSTORE PUSH1 0x20 ADD SWAP1 DUP2 MSTORE PUSH1 0x20 ADD PUSH1 0x0 KECCAK256 SLOAD PUSH3 0x2E7 PUSH1 0x20 SHL PUSH3 0xD9B OR SWAP1 SWAP2 SWAP1 PUSH1 0x20 SHR JUMP JUMPDEST PUSH1 0x0 DUP1 DUP5 PUSH20 0xFFFFFFFFFFFFFFFFFFFFFFFFFFFFFFFFFFFFFFFF AND PUSH20 0xFFFFFFFFFFFFFFFFFFFFFFFFFFFFFFFFFFFFFFFF AND DUP2 MSTORE PUSH1 0x20 ADD SWAP1 DUP2 MSTORE PUSH1 0x20 ADD PUSH1 0x0 KECCAK256 DUP2 SWAP1 SSTORE POP DUP2 PUSH20 0xFFFFFFFFFFFFFFFFFFFFFFFFFFFFFFFFFFFFFFFF AND PUSH1 0x0 PUSH20 0xFFFFFFFFFFFFFFFFFFFFFFFFFFFFFFFFFFFFFFFF AND PUSH32 0xDDF252AD1BE2C89B69C2B068FC378DAA952BA7F163C4A11628F55A4DF523B3EF DUP4 PUSH1 0x40 MLOAD DUP1 DUP3 DUP2 MSTORE PUSH1 0x20 ADD SWAP2 POP POP PUSH1 0x40 MLOAD DUP1 SWAP2 SUB SWAP1 LOG3 POP POP JUMP JUMPDEST POP POP POP JUMP JUMPDEST PUSH1 0x0 DUP1 DUP3 DUP5 ADD SWAP1 POP DUP4 DUP2 LT ISZERO PUSH3 0x366 JUMPI PUSH1 0x40 MLOAD PUSH32 0x8C379A000000000000000000000000000000000000000000000000000000000 DUP2 MSTORE PUSH1 0x4 ADD DUP1 DUP1 PUSH1 0x20 ADD DUP3 DUP2 SUB DUP3 MSTORE PUSH1 0x1B DUP2 MSTORE PUSH1 0x20 ADD DUP1 PUSH32 0x536166654D6174683A206164646974696F6E206F766572666C6F770000000000 DUP2 MSTORE POP PUSH1 0x20 ADD SWAP2 POP POP PUSH1 0x40 MLOAD DUP1 SWAP2 SUB SWAP1 REVERT JUMPDEST DUP1 SWAP2 POP POP SWAP3 SWAP2 POP POP JUMP JUMPDEST DUP3 DUP1 SLOAD PUSH1 0x1 DUP2 PUSH1 0x1 AND ISZERO PUSH2 0x100 MUL SUB AND PUSH1 0x2 SWAP1 DIV SWAP1 PUSH1 0x0 MSTORE PUSH1 0x20 PUSH1 0x0 KECCAK256 SWAP1 PUSH1 0x1F ADD PUSH1 0x20 SWAP1 DIV DUP2 ADD SWAP3 DUP3 PUSH3 0x3A8 JUMPI PUSH1 0x0 DUP6 SSTORE PUSH3 0x3F4 JUMP JUMPDEST DUP3 PUSH1 0x1F LT PUSH3 0x3C3 JUMPI DUP1 MLOAD PUSH1 0xFF NOT AND DUP4 DUP1 ADD OR DUP6 SSTORE PUSH3 0x3F4 JUMP JUMPDEST DUP3 DUP1 ADD PUSH1 0x1 ADD DUP6 SSTORE DUP3 ISZERO PUSH3 0x3F4 JUMPI SWAP2 DUP3 ADD JUMPDEST DUP3 DUP2 GT ISZERO PUSH3 0x3F3 JUMPI DUP3 MLOAD DUP3 SSTORE SWAP2 PUSH1 0x20 ADD SWAP2 SWAP1 PUSH1 0x1 ADD SWAP1 PUSH3 0x3D6 JUMP JUMPDEST JUMPDEST POP SWAP1 POP PUSH3 0x403 SWAP2 SWAP1 PUSH3 0x407 JUMP JUMPDEST POP SWAP1 JUMP JUMPDEST JUMPDEST DUP1 DUP3 GT ISZERO PUSH3 0x422 JUMPI PUSH1 0x0 DUP2 PUSH1 0x0 SWAP1 SSTORE POP PUSH1 0x1 ADD PUSH3 0x408 JUMP JUMPDEST POP SWAP1 JUMP JUMPDEST PUSH2 0x174F DUP1 PUSH3 0x436 PUSH1 0x0 CODECOPY PUSH1 0x0 RETURN INVALID PUSH1 0x80 PUSH1 0x40 MSTORE CALLVALUE DUP1 ISZERO PUSH2 0x10 JUMPI PUSH1 0x0 DUP1 REVERT JUMPDEST POP PUSH1 0x4 CALLDATASIZE LT PUSH2 0xF5 JUMPI PUSH1 0x0 CALLDATALOAD PUSH1 0xE0 SHR DUP1 PUSH4 0x4000AEA0 GT PUSH2 0x97 JUMPI DUP1 PUSH4 0xA457C2D7 GT PUSH2 0x66 JUMPI DUP1 PUSH4 0xA457C2D7 EQ PUSH2 0x5C5 JUMPI DUP1 PUSH4 0xA9059CBB EQ PUSH2 0x629 JUMPI DUP1 PUSH4 0xD73DD623 EQ PUSH2 0x68D JUMPI DUP1 PUSH4 0xDD62ED3E EQ PUSH2 0x6F1 JUMPI PUSH2 0xF5 JUMP JUMPDEST DUP1 PUSH4 0x4000AEA0 EQ PUSH2 0x38B JUMPI DUP1 PUSH4 0x66188463 EQ PUSH2 0x486 JUMPI DUP1 PUSH4 0x70A08231 EQ PUSH2 0x4EA JUMPI DUP1 PUSH4 0x95D89B41 EQ PUSH2 0x542 JUMPI PUSH2 0xF5 JUMP JUMPDEST DUP1 PUSH4 0x181F5A77 GT PUSH2 0xD3 JUMPI DUP1 PUSH4 0x181F5A77 EQ PUSH2 0x1FF JUMPI DUP1 PUSH4 0x23B872DD EQ PUSH2 0x282 JUMPI DUP1 PUSH4 0x313CE567 EQ PUSH2 0x306 JUMPI DUP1 PUSH4 0x39509351 EQ PUSH2 0x327 JUMPI PUSH2 0xF5 JUMP JUMPDEST DUP1 PUSH4 0x6FDDE03 EQ PUSH2 0xFA JUMPI DUP1 PUSH4 0x95EA7B3 EQ PUSH2 0x17D JUMPI DUP1 PUSH4 0x18160DDD EQ PUSH2 0x1E1 JUMPI JUMPDEST PUSH1 0x0 DUP1 REVERT JUMPDEST PUSH2 0x102 PUSH2 0x769 JUMP JUMPDEST PUSH1 0x40 MLOAD DUP1 DUP1 PUSH1 0x20 ADD DUP3 DUP2 SUB DUP3 MSTORE DUP4 DUP2 DUP2 MLOAD DUP2 MSTORE PUSH1 0x20 ADD SWAP2 POP DUP1 MLOAD SWAP1 PUSH1 0x20 ADD SWAP1 DUP1 DUP4 DUP4 PUSH1 0x0 JUMPDEST DUP4 DUP2 LT ISZERO PUSH2 0x142 JUMPI DUP1 DUP3 ADD MLOAD DUP2 DUP5 ADD MSTORE PUSH1 0x20 DUP2 ADD SWAP1 POP PUSH2 0x127 JUMP JUMPDEST POP POP POP POP SWAP1 POP SWAP1 DUP2 ADD SWAP1 PUSH1 0x1F AND DUP1 ISZERO PUSH2 0x16F JUMPI DUP1 DUP3 SUB DUP1 MLOAD PUSH1 0x1 DUP4 PUSH1 0x20 SUB PUSH2 0x100 EXP SUB NOT AND DUP2 MSTORE PUSH1 0x20 ADD SWAP2 POP JUMPDEST POP SWAP3 POP POP POP PUSH1 0x40 MLOAD DUP1 SWAP2 SUB SWAP1 RETURN JUMPDEST PUSH2 0x1C9 PUSH1 0x4 DUP1 CALLDATASIZE SUB PUSH1 0x40 DUP2 LT ISZERO PUSH2 0x193 JUMPI PUSH1 0x0 DUP1 REVERT JUMPDEST DUP2 ADD SWAP1 DUP1 DUP1 CALLDATALOAD PUSH20 0xFFFFFFFFFFFFFFFFFFFFFFFFFFFFFFFFFFFFFFFF AND SWAP1 PUSH1 0x20 ADD SWAP1 SWAP3 SWAP2 SWAP1 DUP1 CALLDATALOAD SWAP1 PUSH1 0x20 ADD SWAP1 SWAP3 SWAP2 SWAP1 POP POP POP PUSH2 0x80B JUMP JUMPDEST PUSH1 0x40 MLOAD DUP1 DUP3 ISZERO ISZERO DUP2 MSTORE PUSH1 0x20 ADD SWAP2 POP POP PUSH1 0x40 MLOAD DUP1 SWAP2 SUB SWAP1 RETURN JUMPDEST PUSH2 0x1E9 PUSH2 0x829 JUMP JUMPDEST PUSH1 0x40 MLOAD DUP1 DUP3 DUP2 MSTORE PUSH1 0x20 ADD SWAP2 POP POP PUSH1 0x40 MLOAD DUP1 SWAP2 SUB SWAP1 RETURN JUMPDEST PUSH2 0x207 PUSH2 0x833 JUMP JUMPDEST PUSH1 0x40 MLOAD DUP1 DUP1 PUSH1 0x20 ADD DUP3 DUP2 SUB DUP3 MSTORE DUP4 DUP2 DUP2 MLOAD DUP2 MSTORE PUSH1 0x20 ADD SWAP2 POP DUP1 MLOAD SWAP1 PUSH1 0x20 ADD SWAP1 DUP1 DUP4 DUP4 PUSH1 0x0 JUMPDEST DUP4 DUP2 LT ISZERO PUSH2 0x247 JUMPI DUP1 DUP3 ADD MLOAD DUP2 DUP5 ADD MSTORE PUSH1 0x20 DUP2 ADD SWAP1 POP PUSH2 0x22C JUMP JUMPDEST POP POP POP POP SWAP1 POP SWAP1 DUP2 ADD SWAP1 PUSH1 0x1F AND DUP1 ISZERO PUSH2 0x274 JUMPI DUP1 DUP3 SUB DUP1 MLOAD PUSH1 0x1 DUP4 PUSH1 0x20 SUB PUSH2 0x100 EXP SUB NOT AND DUP2 MSTORE PUSH1 0x20 ADD SWAP2 POP JUMPDEST POP SWAP3 POP POP POP PUSH1 0x40 MLOAD DUP1 SWAP2 SUB SWAP1 RETURN JUMPDEST PUSH2 0x2EE PUSH1 0x4 DUP1 CALLDATASIZE SUB PUSH1 0x60 DUP2 LT ISZERO PUSH2 0x298 JUMPI PUSH1 0x0 DUP1 REVERT JUMPDEST DUP2 ADD SWAP1 DUP1 DUP1 CALLDATALOAD PUSH20 0xFFFFFFFFFFFFFFFFFFFFFFFFFFFFFFFFFFFFFFFF AND SWAP1 PUSH1 0x20 ADD SWAP1 SWAP3 SWAP2 SWAP1 DUP1 CALLDATALOAD PUSH20 0xFFFFFFFFFFFFFFFFFFFFFFFFFFFFFFFFFFFFFFFF AND SWAP1 PUSH1 0x20 ADD SWAP1 SWAP3 SWAP2 SWAP1 DUP1 CALLDATALOAD SWAP1 PUSH1 0x20 ADD SWAP1 SWAP3 SWAP2 SWAP1 POP POP POP PUSH2 0x870 JUMP JUMPDEST PUSH1 0x40 MLOAD DUP1 DUP3 ISZERO ISZERO DUP2 MSTORE PUSH1 0x20 ADD SWAP2 POP POP PUSH1 0x40 MLOAD DUP1 SWAP2 SUB SWAP1 RETURN JUMPDEST PUSH2 0x30E PUSH2 0x949 JUMP JUMPDEST PUSH1 0x40 MLOAD DUP1 DUP3 PUSH1 0xFF AND DUP2 MSTORE PUSH1 0x20 ADD SWAP2 POP POP PUSH1 0x40 MLOAD DUP1 SWAP2 SUB SWAP1 RETURN JUMPDEST PUSH2 0x373 PUSH1 0x4 DUP1 CALLDATASIZE SUB PUSH1 0x40 DUP2 LT ISZERO PUSH2 0x33D JUMPI PUSH1 0x0 DUP1 REVERT JUMPDEST DUP2 ADD SWAP1 DUP1 DUP1 CALLDATALOAD PUSH20 0xFFFFFFFFFFFFFFFFFFFFFFFFFFFFFFFFFFFFFFFF AND SWAP1 PUSH1 0x20 ADD SWAP1 SWAP3 SWAP2 SWAP1 DUP1 CALLDATALOAD SWAP1 PUSH1 0x20 ADD SWAP1 SWAP3 SWAP2 SWAP1 POP POP POP PUSH2 0x960 JUMP JUMPDEST PUSH1 0x40 MLOAD DUP1 DUP3 ISZERO ISZERO DUP2 MSTORE PUSH1 0x20 ADD SWAP2 POP POP PUSH1 0x40 MLOAD DUP1 SWAP2 SUB SWAP1 RETURN JUMPDEST PUSH2 0x46E PUSH1 0x4 DUP1 CALLDATASIZE SUB PUSH1 0x60 DUP2 LT ISZERO PUSH2 0x3A1 JUMPI PUSH1 0x0 DUP1 REVERT JUMPDEST DUP2 ADD SWAP1 DUP1 DUP1 CALLDATALOAD PUSH20 0xFFFFFFFFFFFFFFFFFFFFFFFFFFFFFFFFFFFFFFFF AND SWAP1 PUSH1 0x20 ADD SWAP1 SWAP3 SWAP2 SWAP1 DUP1 CALLDATALOAD SWAP1 PUSH1 0x20 ADD SWAP1 SWAP3 SWAP2 SWAP1 DUP1 CALLDATALOAD SWAP1 PUSH1 0x20 ADD SWAP1 PUSH5 0x100000000 DUP2 GT ISZERO PUSH2 0x3E8 JUMPI PUSH1 0x0 DUP1 REVERT JUMPDEST DUP3 ADD DUP4 PUSH1 0x20 DUP3 ADD GT ISZERO PUSH2 0x3FA JUMPI PUSH1 0x0 DUP1 REVERT JUMPDEST DUP1 CALLDATALOAD SWAP1 PUSH1 0x20 ADD SWAP2 DUP5 PUSH1 0x1 DUP4 MUL DUP5 ADD GT PUSH5 0x100000000 DUP4 GT OR ISZERO PUSH2 0x41C JUMPI PUSH1 0x0 DUP1 REVERT JUMPDEST SWAP2 SWAP1 DUP1 DUP1 PUSH1 0x1F ADD PUSH1 0x20 DUP1 SWAP2 DIV MUL PUSH1 0x20 ADD PUSH1 0x40 MLOAD SWAP1 DUP2 ADD PUSH1 0x40 MSTORE DUP1 SWAP4 SWAP3 SWAP2 SWAP1 DUP2 DUP2 MSTORE PUSH1 0x20 ADD DUP4 DUP4 DUP1 DUP3 DUP5 CALLDATACOPY PUSH1 0x0 DUP2 DUP5 ADD MSTORE PUSH1 0x1F NOT PUSH1 0x1F DUP3 ADD AND SWAP1 POP DUP1 DUP4 ADD SWAP3 POP POP POP POP POP POP POP SWAP2 SWAP3 SWAP2 SWAP3 SWAP1 POP POP POP PUSH2 0xA13 JUMP JUMPDEST PUSH1 0x40 MLOAD DUP1 DUP3 ISZERO ISZERO DUP2 MSTORE PUSH1 0x20 ADD SWAP2 POP POP PUSH1 0x40 MLOAD DUP1 SWAP2 SUB SWAP1 RETURN JUMPDEST PUSH2 0x4D2 PUSH1 0x4 DUP1 CALLDATASIZE SUB PUSH1 0x40 DUP2 LT ISZERO PUSH2 0x49C JUMPI PUSH1 0x0 DUP1 REVERT JUMPDEST DUP2 ADD SWAP1 DUP1 DUP1 CALLDATALOAD PUSH20 0xFFFFFFFFFFFFFFFFFFFFFFFFFFFFFFFFFFFFFFFF AND SWAP1 PUSH1 0x20 ADD SWAP1 SWAP3 SWAP2 SWAP1 DUP1 CALLDATALOAD SWAP1 PUSH1 0x20 ADD SWAP1 SWAP3 SWAP2 SWAP1 POP POP POP PUSH2 0xB17 JUMP JUMPDEST PUSH1 0x40 MLOAD DUP1 DUP3 ISZERO ISZERO DUP2 MSTORE PUSH1 0x20 ADD SWAP2 POP POP PUSH1 0x40 MLOAD DUP1 SWAP2 SUB SWAP1 RETURN JUMPDEST PUSH2 0x52C PUSH1 0x4 DUP1 CALLDATASIZE SUB PUSH1 0x20 DUP2 LT ISZERO PUSH2 0x500 JUMPI PUSH1 0x0 DUP1 REVERT JUMPDEST DUP2 ADD SWAP1 DUP1 DUP1 CALLDATALOAD PUSH20 0xFFFFFFFFFFFFFFFFFFFFFFFFFFFFFFFFFFFFFFFF AND SWAP1 PUSH1 0x20 ADD SWAP1 SWAP3 SWAP2 SWAP1 POP POP POP PUSH2 0xB2B JUMP JUMPDEST PUSH1 0x40 MLOAD DUP1 DUP3 DUP2 MSTORE PUSH1 0x20 ADD SWAP2 POP POP PUSH1 0x40 MLOAD DUP1 SWAP2 SUB SWAP1 RETURN JUMPDEST PUSH2 0x54A PUSH2 0xB73 JUMP JUMPDEST PUSH1 0x40 MLOAD DUP1 DUP1 PUSH1 0x20 ADD DUP3 DUP2 SUB DUP3 MSTORE DUP4 DUP2 DUP2 MLOAD DUP2 MSTORE PUSH1 0x20 ADD SWAP2 POP DUP1 MLOAD SWAP1 PUSH1 0x20 ADD SWAP1 DUP1 DUP4 DUP4 PUSH1 0x0 JUMPDEST DUP4 DUP2 LT ISZERO PUSH2 0x58A JUMPI DUP1 DUP3 ADD MLOAD DUP2 DUP5 ADD MSTORE PUSH1 0x20 DUP2 ADD SWAP1 POP PUSH2 0x56F JUMP JUMPDEST POP POP POP POP SWAP1 POP SWAP1 DUP2 ADD SWAP1 PUSH1 0x1F AND DUP1 ISZERO PUSH2 0x5B7 JUMPI DUP1 DUP3 SUB DUP1 MLOAD PUSH1 0x1 DUP4 PUSH1 0x20 SUB PUSH2 0x100 EXP SUB NOT AND DUP2 MSTORE PUSH1 0x20 ADD SWAP2 POP JUMPDEST POP SWAP3 POP POP POP PUSH1 0x40 MLOAD DUP1 SWAP2 SUB SWAP1 RETURN JUMPDEST PUSH2 0x611 PUSH1 0x4 DUP1 CALLDATASIZE SUB PUSH1 0x40 DUP2 LT ISZERO PUSH2 0x5DB JUMPI PUSH1 0x0 DUP1 REVERT JUMPDEST DUP2 ADD SWAP1 DUP1 DUP1 CALLDATALOAD PUSH20 0xFFFFFFFFFFFFFFFFFFFFFFFFFFFFFFFFFFFFFFFF AND SWAP1 PUSH1 0x20 ADD SWAP1 SWAP3 SWAP2 SWAP1 DUP1 CALLDATALOAD SWAP1 PUSH1 0x20 ADD SWAP1 SWAP3 SWAP2 SWAP1 POP POP POP PUSH2 0xC15 JUMP JUMPDEST PUSH1 0x40 MLOAD DUP1 DUP3 ISZERO ISZERO DUP2 MSTORE PUSH1 0x20 ADD SWAP2 POP POP PUSH1 0x40 MLOAD DUP1 SWAP2 SUB SWAP1 RETURN JUMPDEST PUSH2 0x675 PUSH1 0x4 DUP1 CALLDATASIZE SUB PUSH1 0x40 DUP2 LT ISZERO PUSH2 0x63F JUMPI PUSH1 0x0 DUP1 REVERT JUMPDEST DUP2 ADD SWAP1 DUP1 DUP1 CALLDATALOAD PUSH20 0xFFFFFFFFFFFFFFFFFFFFFFFFFFFFFFFFFFFFFFFF AND SWAP1 PUSH1 0x20 ADD SWAP1 SWAP3 SWAP2 SWAP1 DUP1 CALLDATALOAD SWAP1 PUSH1 0x20 ADD SWAP1 SWAP3 SWAP2 SWAP1 POP POP POP PUSH2 0xCE2 JUMP JUMPDEST PUSH1 0x40 MLOAD DUP1 DUP3 ISZERO ISZERO DUP2 MSTORE PUSH1 0x20 ADD SWAP2 POP POP PUSH1 0x40 MLOAD DUP1 SWAP2 SUB SWAP1 RETURN JUMPDEST PUSH2 0x6D9 PUSH1 0x4 DUP1 CALLDATASIZE SUB PUSH1 0x40 DUP2 LT ISZERO PUSH2 0x6A3 JUMPI PUSH1 0x0 DUP1 REVERT JUMPDEST DUP2 ADD SWAP1 DUP1 DUP1 CALLDATALOAD PUSH20 0xFFFFFFFFFFFFFFFFFFFFFFFFFFFFFFFFFFFFFFFF AND SWAP1 PUSH1 0x20 ADD SWAP1 SWAP3 SWAP2 SWAP1 DUP1 CALLDATALOAD SWAP1 PUSH1 0x20 ADD SWAP1 SWAP3 SWAP2 SWAP1 POP POP POP PUSH2 0xD00 JUMP JUMPDEST PUSH1 0x40 MLOAD DUP1 DUP3 ISZERO ISZERO DUP2 MSTORE PUSH1 0x20 ADD SWAP2 POP POP PUSH1 0x40 MLOAD DUP1 SWAP2 SUB SWAP1 RETURN JUMPDEST PUSH2 0x753 PUSH1 0x4 DUP1 CALLDATASIZE SUB PUSH1 0x40 DUP2 LT ISZERO PUSH2 0x707 JUMPI PUSH1 0x0 DUP1 REVERT JUMPDEST DUP2 ADD SWAP1 DUP1 DUP1 CALLDATALOAD PUSH20 0xFFFFFFFFFFFFFFFFFFFFFFFFFFFFFFFFFFFFFFFF AND SWAP1 PUSH1 0x20 ADD SWAP1 SWAP3 SWAP2 SWAP1 DUP1 CALLDATALOAD PUSH20 0xFFFFFFFFFFFFFFFFFFFFFFFFFFFFFFFFFFFFFFFF AND SWAP1 PUSH1 0x20 ADD SWAP1 SWAP3 SWAP2 SWAP1 POP POP POP PUSH2 0xD14 JUMP JUMPDEST PUSH1 0x40 MLOAD DUP1 DUP3 DUP2 MSTORE PUSH1 0x20 ADD SWAP2 POP POP PUSH1 0x40 MLOAD DUP1 SWAP2 SUB SWAP1 RETURN JUMPDEST PUSH1 0x60 PUSH1 0x3 DUP1 SLOAD PUSH1 0x1 DUP2 PUSH1 0x1 AND ISZERO PUSH2 0x100 MUL SUB AND PUSH1 0x2 SWAP1 DIV DUP1 PUSH1 0x1F ADD PUSH1 0x20 DUP1 SWAP2 DIV MUL PUSH1 0x20 ADD PUSH1 0x40 MLOAD SWAP1 DUP2 ADD PUSH1 0x40 MSTORE DUP1 SWAP3 SWAP2 SWAP1 DUP2 DUP2 MSTORE PUSH1 0x20 ADD DUP3 DUP1 SLOAD PUSH1 0x1 DUP2 PUSH1 0x1 AND ISZERO PUSH2 0x100 MUL SUB AND PUSH1 0x2 SWAP1 DIV DUP1 ISZERO PUSH2 0x801 JUMPI DUP1 PUSH1 0x1F LT PUSH2 0x7D6 JUMPI PUSH2 0x100 DUP1 DUP4 SLOAD DIV MUL DUP4 MSTORE SWAP2 PUSH1 0x20 ADD SWAP2 PUSH2 0x801 JUMP JUMPDEST DUP3 ADD SWAP2 SWAP1 PUSH1 0x0 MSTORE PUSH1 0x20 PUSH1 0x0 KECCAK256 SWAP1 JUMPDEST DUP2 SLOAD DUP2 MSTORE SWAP1 PUSH1 0x1 ADD SWAP1 PUSH1 0x20 ADD DUP1 DUP4 GT PUSH2 0x7E4 JUMPI DUP3 SWAP1 SUB PUSH1 0x1F AND DUP3 ADD SWAP2 JUMPDEST POP POP POP POP POP SWAP1 POP SWAP1 JUMP JUMPDEST PUSH1 0x0 PUSH2 0x81F PUSH2 0x818 PUSH2 0xE23 JUMP JUMPDEST DUP5 DUP5 PUSH2 0xE2B JUMP JUMPDEST PUSH1 0x1 SWAP1 POP SWAP3 SWAP2 POP POP JUMP JUMPDEST PUSH1 0x0 PUSH1 0x2 SLOAD SWAP1 POP SWAP1 JUMP JUMPDEST PUSH1 0x60 PUSH1 0x40 MLOAD DUP1 PUSH1 0x40 ADD PUSH1 0x40 MSTORE DUP1 PUSH1 0xF DUP2 MSTORE PUSH1 0x20 ADD PUSH32 0x4C696E6B546F6B656E20302E302E330000000000000000000000000000000000 DUP2 MSTORE POP SWAP1 POP SWAP1 JUMP JUMPDEST PUSH1 0x0 PUSH2 0x87D DUP5 DUP5 DUP5 PUSH2 0xEC2 JUMP JUMPDEST PUSH2 0x93E DUP5 PUSH2 0x889 PUSH2 0xE23 JUMP JUMPDEST PUSH2 0x939 DUP6 PUSH1 0x40 MLOAD DUP1 PUSH1 0x60 ADD PUSH1 0x40 MSTORE DUP1 PUSH1 0x28 DUP2 MSTORE PUSH1 0x20 ADD PUSH2 0x1684 PUSH1 0x28 SWAP2 CODECOPY PUSH1 0x1 PUSH1 0x0 DUP12 PUSH20 0xFFFFFFFFFFFFFFFFFFFFFFFFFFFFFFFFFFFFFFFF AND PUSH20 0xFFFFFFFFFFFFFFFFFFFFFFFFFFFFFFFFFFFFFFFF AND DUP2 MSTORE PUSH1 0x20 ADD SWAP1 DUP2 MSTORE PUSH1 0x20 ADD PUSH1 0x0 KECCAK256 PUSH1 0x0 PUSH2 0x8EF PUSH2 0xE23 JUMP JUMPDEST PUSH20 0xFFFFFFFFFFFFFFFFFFFFFFFFFFFFFFFFFFFFFFFF AND PUSH20 0xFFFFFFFFFFFFFFFFFFFFFFFFFFFFFFFFFFFFFFFF AND DUP2 MSTORE PUSH1 0x20 ADD SWAP1 DUP2 MSTORE PUSH1 0x20 ADD PUSH1 0x0 KECCAK256 SLOAD PUSH2 0xF59 SWAP1 SWAP3 SWAP2 SWAP1 PUSH4 0xFFFFFFFF AND JUMP JUMPDEST PUSH2 0xE2B JUMP JUMPDEST PUSH1 0x1 SWAP1 POP SWAP4 SWAP3 POP POP POP JUMP JUMPDEST PUSH1 0x0 PUSH1 0x5 PUSH1 0x0 SWAP1 SLOAD SWAP1 PUSH2 0x100 EXP SWAP1 DIV PUSH1 0xFF AND SWAP1 POP SWAP1 JUMP JUMPDEST PUSH1 0x0 PUSH2 0xA09 PUSH2 0x96D PUSH2 0xE23 JUMP JUMPDEST DUP5 PUSH2 0xA04 DUP6 PUSH1 0x1 PUSH1 0x0 PUSH2 0x97E PUSH2 0xE23 JUMP JUMPDEST PUSH20 0xFFFFFFFFFFFFFFFFFFFFFFFFFFFFFFFFFFFFFFFF AND PUSH20 0xFFFFFFFFFFFFFFFFFFFFFFFFFFFFFFFFFFFFFFFF AND DUP2 MSTORE PUSH1 0x20 ADD SWAP1 DUP2 MSTORE PUSH1 0x20 ADD PUSH1 0x0 KECCAK256 PUSH1 0x0 DUP10 PUSH20 0xFFFFFFFFFFFFFFFFFFFFFFFFFFFFFFFFFFFFFFFF AND PUSH20 0xFFFFFFFFFFFFFFFFFFFFFFFFFFFFFFFFFFFFFFFF AND DUP2 MSTORE PUSH1 0x20 ADD SWAP1 DUP2 MSTORE PUSH1 0x20 ADD PUSH1 0x0 KECCAK256 SLOAD PUSH2 0xD9B SWAP1 SWAP2 SWAP1 PUSH4 0xFFFFFFFF AND JUMP JUMPDEST PUSH2 0xE2B JUMP JUMPDEST PUSH1 0x1 SWAP1 POP SWAP3 SWAP2 POP POP JUMP JUMPDEST PUSH1 0x0 PUSH2 0xA1F DUP5 DUP5 PUSH2 0xCE2 JUMP JUMPDEST POP DUP4 PUSH20 0xFFFFFFFFFFFFFFFFFFFFFFFFFFFFFFFFFFFFFFFF AND CALLER PUSH20 0xFFFFFFFFFFFFFFFFFFFFFFFFFFFFFFFFFFFFFFFF AND PUSH32 0xE19260AFF97B920C7DF27010903AEB9C8D2BE5D310A2C67824CF3F15396E4C16 DUP6 DUP6 PUSH1 0x40 MLOAD DUP1 DUP4 DUP2 MSTORE PUSH1 0x20 ADD DUP1 PUSH1 0x20 ADD DUP3 DUP2 SUB DUP3 MSTORE DUP4 DUP2 DUP2 MLOAD DUP2 MSTORE PUSH1 0x20 ADD SWAP2 POP DUP1 MLOAD SWAP1 PUSH1 0x20 ADD SWAP1 DUP1 DUP4 DUP4 PUSH1 0x0 JUMPDEST DUP4 DUP2 LT ISZERO PUSH2 0xAB7 JUMPI DUP1 DUP3 ADD MLOAD DUP2 DUP5 ADD MSTORE PUSH1 0x20 DUP2 ADD SWAP1 POP PUSH2 0xA9C JUMP JUMPDEST POP POP POP POP SWAP1 POP SWAP1 DUP2 ADD SWAP1 PUSH1 0x1F AND DUP1 ISZERO PUSH2 0xAE4 JUMPI DUP1 DUP3 SUB DUP1 MLOAD PUSH1 0x1 DUP4 PUSH1 0x20 SUB PUSH2 0x100 EXP SUB NOT AND DUP2 MSTORE PUSH1 0x20 ADD SWAP2 POP JUMPDEST POP SWAP4 POP POP POP POP PUSH1 0x40 MLOAD DUP1 SWAP2 SUB SWAP1 LOG3 PUSH2 0xAFB DUP5 PUSH2 0x1013 JUMP JUMPDEST ISZERO PUSH2 0xB0C JUMPI PUSH2 0xB0B DUP5 DUP5 DUP5 PUSH2 0x1026 JUMP JUMPDEST JUMPDEST PUSH1 0x1 SWAP1 POP SWAP4 SWAP3 POP POP POP JUMP JUMPDEST PUSH1 0x0 PUSH2 0xB23 DUP4 DUP4 PUSH2 0xC15 JUMP JUMPDEST SWAP1 POP SWAP3 SWAP2 POP POP JUMP JUMPDEST PUSH1 0x0 DUP1 PUSH1 0x0 DUP4 PUSH20 0xFFFFFFFFFFFFFFFFFFFFFFFFFFFFFFFFFFFFFFFF AND PUSH20 0xFFFFFFFFFFFFFFFFFFFFFFFFFFFFFFFFFFFFFFFF AND DUP2 MSTORE PUSH1 0x20 ADD SWAP1 DUP2 MSTORE PUSH1 0x20 ADD PUSH1 0x0 KECCAK256 SLOAD SWAP1 POP SWAP2 SWAP1 POP JUMP JUMPDEST PUSH1 0x60 PUSH1 0x4 DUP1 SLOAD PUSH1 0x1 DUP2 PUSH1 0x1 AND ISZERO PUSH2 0x100 MUL SUB AND PUSH1 0x2 SWAP1 DIV DUP1 PUSH1 0x1F ADD PUSH1 0x20 DUP1 SWAP2 DIV MUL PUSH1 0x20 ADD PUSH1 0x40 MLOAD SWAP1 DUP2 ADD PUSH1 0x40 MSTORE DUP1 SWAP3 SWAP2 SWAP1 DUP2 DUP2 MSTORE PUSH1 0x20 ADD DUP3 DUP1 SLOAD PUSH1 0x1 DUP2 PUSH1 0x1 AND ISZERO PUSH2 0x100 MUL SUB AND PUSH1 0x2 SWAP1 DIV DUP1 ISZERO PUSH2 0xC0B JUMPI DUP1 PUSH1 0x1F LT PUSH2 0xBE0 JUMPI PUSH2 0x100 DUP1 DUP4 SLOAD DIV MUL DUP4 MSTORE SWAP2 PUSH1 0x20 ADD SWAP2 PUSH2 0xC0B JUMP JUMPDEST DUP3 ADD SWAP2 SWAP1 PUSH1 0x0 MSTORE PUSH1 0x20 PUSH1 0x0 KECCAK256 SWAP1 JUMPDEST DUP2 SLOAD DUP2 MSTORE SWAP1 PUSH1 0x1 ADD SWAP1 PUSH1 0x20 ADD DUP1 DUP4 GT PUSH2 0xBEE JUMPI DUP3 SWAP1 SUB PUSH1 0x1F AND DUP3 ADD SWAP2 JUMPDEST POP POP POP POP POP SWAP1 POP SWAP1 JUMP JUMPDEST PUSH1 0x0 PUSH2 0xCD8 PUSH2 0xC22 PUSH2 0xE23 JUMP JUMPDEST DUP5 PUSH2 0xCD3 DUP6 PUSH1 0x40 MLOAD DUP1 PUSH1 0x60 ADD PUSH1 0x40 MSTORE DUP1 PUSH1 0x25 DUP2 MSTORE PUSH1 0x20 ADD PUSH2 0x16F5 PUSH1 0x25 SWAP2 CODECOPY PUSH1 0x1 PUSH1 0x0 PUSH2 0xC4C PUSH2 0xE23 JUMP JUMPDEST PUSH20 0xFFFFFFFFFFFFFFFFFFFFFFFFFFFFFFFFFFFFFFFF AND PUSH20 0xFFFFFFFFFFFFFFFFFFFFFFFFFFFFFFFFFFFFFFFF AND DUP2 MSTORE PUSH1 0x20 ADD SWAP1 DUP2 MSTORE PUSH1 0x20 ADD PUSH1 0x0 KECCAK256 PUSH1 0x0 DUP11 PUSH20 0xFFFFFFFFFFFFFFFFFFFFFFFFFFFFFFFFFFFFFFFF AND PUSH20 0xFFFFFFFFFFFFFFFFFFFFFFFFFFFFFFFFFFFFFFFF AND DUP2 MSTORE PUSH1 0x20 ADD SWAP1 DUP2 MSTORE PUSH1 0x20 ADD PUSH1 0x0 KECCAK256 SLOAD PUSH2 0xF59 SWAP1 SWAP3 SWAP2 SWAP1 PUSH4 0xFFFFFFFF AND JUMP JUMPDEST PUSH2 0xE2B JUMP JUMPDEST PUSH1 0x1 SWAP1 POP SWAP3 SWAP2 POP POP JUMP JUMPDEST PUSH1 0x0 PUSH2 0xCF6 PUSH2 0xCEF PUSH2 0xE23 JUMP JUMPDEST DUP5 DUP5 PUSH2 0xEC2 JUMP JUMPDEST PUSH1 0x1 SWAP1 POP SWAP3 SWAP2 POP POP JUMP JUMPDEST PUSH1 0x0 PUSH2 0xD0C DUP4 DUP4 PUSH2 0x960 JUMP JUMPDEST SWAP1 POP SWAP3 SWAP2 POP POP JUMP JUMPDEST PUSH1 0x0 PUSH1 0x1 PUSH1 0x0 DUP5 PUSH20 0xFFFFFFFFFFFFFFFFFFFFFFFFFFFFFFFFFFFFFFFF AND PUSH20 0xFFFFFFFFFFFFFFFFFFFFFFFFFFFFFFFFFFFFFFFF AND DUP2 MSTORE PUSH1 0x20 ADD SWAP1 DUP2 MSTORE PUSH1 0x20 ADD PUSH1 0x0 KECCAK256 PUSH1 0x0 DUP4 PUSH20 0xFFFFFFFFFFFFFFFFFFFFFFFFFFFFFFFFFFFFFFFF AND PUSH20 0xFFFFFFFFFFFFFFFFFFFFFFFFFFFFFFFFFFFFFFFF AND DUP2 MSTORE PUSH1 0x20 ADD SWAP1 DUP2 MSTORE PUSH1 0x20 ADD PUSH1 0x0 KECCAK256 SLOAD SWAP1 POP SWAP3 SWAP2 POP POP JUMP JUMPDEST PUSH1 0x0 DUP1 DUP3 DUP5 ADD SWAP1 POP DUP4 DUP2 LT ISZERO PUSH2 0xE19 JUMPI PUSH1 0x40 MLOAD PUSH32 0x8C379A000000000000000000000000000000000000000000000000000000000 DUP2 MSTORE PUSH1 0x4 ADD DUP1 DUP1 PUSH1 0x20 ADD DUP3 DUP2 SUB DUP3 MSTORE PUSH1 0x1B DUP2 MSTORE PUSH1 0x20 ADD DUP1 PUSH32 0x536166654D6174683A206164646974696F6E206F766572666C6F770000000000 DUP2 MSTORE POP PUSH1 0x20 ADD SWAP2 POP POP PUSH1 0x40 MLOAD DUP1 SWAP2 SUB SWAP1 REVERT JUMPDEST DUP1 SWAP2 POP POP SWAP3 SWAP2 POP POP JUMP JUMPDEST PUSH1 0x0 CALLER SWAP1 POP SWAP1 JUMP JUMPDEST DUP2 ADDRESS PUSH20 0xFFFFFFFFFFFFFFFFFFFFFFFFFFFFFFFFFFFFFFFF AND DUP2 PUSH20 0xFFFFFFFFFFFFFFFFFFFFFFFFFFFFFFFFFFFFFFFF AND EQ ISZERO PUSH2 0xEB1 JUMPI PUSH1 0x40 MLOAD PUSH32 0x8C379A000000000000000000000000000000000000000000000000000000000 DUP2 MSTORE PUSH1 0x4 ADD DUP1 DUP1 PUSH1 0x20 ADD DUP3 DUP2 SUB DUP3 MSTORE PUSH1 0x34 DUP2 MSTORE PUSH1 0x20 ADD DUP1 PUSH2 0x162A PUSH1 0x34 SWAP2 CODECOPY PUSH1 0x40 ADD SWAP2 POP POP PUSH1 0x40 MLOAD DUP1 SWAP2 SUB SWAP1 REVERT JUMPDEST PUSH2 0xEBC DUP5 DUP5 DUP5 PUSH2 0x1127 JUMP JUMPDEST POP POP POP POP JUMP JUMPDEST DUP2 ADDRESS PUSH20 0xFFFFFFFFFFFFFFFFFFFFFFFFFFFFFFFFFFFFFFFF AND DUP2 PUSH20 0xFFFFFFFFFFFFFFFFFFFFFFFFFFFFFFFFFFFFFFFF AND EQ ISZERO PUSH2 0xF48 JUMPI PUSH1 0x40 MLOAD PUSH32 0x8C379A000000000000000000000000000000000000000000000000000000000 DUP2 MSTORE PUSH1 0x4 ADD DUP1 DUP1 PUSH1 0x20 ADD DUP3 DUP2 SUB DUP3 MSTORE PUSH1 0x34 DUP2 MSTORE PUSH1 0x20 ADD DUP1 PUSH2 0x162A PUSH1 0x34 SWAP2 CODECOPY PUSH1 0x40 ADD SWAP2 POP POP PUSH1 0x40 MLOAD DUP1 SWAP2 SUB SWAP1 REVERT JUMPDEST PUSH2 0xF53 DUP5 DUP5 DUP5 PUSH2 0x131E JUMP JUMPDEST POP POP POP POP JUMP JUMPDEST PUSH1 0x0 DUP4 DUP4 GT ISZERO DUP3 SWAP1 PUSH2 0x1006 JUMPI PUSH1 0x40 MLOAD PUSH32 0x8C379A000000000000000000000000000000000000000000000000000000000 DUP2 MSTORE PUSH1 0x4 ADD DUP1 DUP1 PUSH1 0x20 ADD DUP3 DUP2 SUB DUP3 MSTORE DUP4 DUP2 DUP2 MLOAD DUP2 MSTORE PUSH1 0x20 ADD SWAP2 POP DUP1 MLOAD SWAP1 PUSH1 0x20 ADD SWAP1 DUP1 DUP4 DUP4 PUSH1 0x0 JUMPDEST DUP4 DUP2 LT ISZERO PUSH2 0xFCB JUMPI DUP1 DUP3 ADD MLOAD DUP2 DUP5 ADD MSTORE PUSH1 0x20 DUP2 ADD SWAP1 POP PUSH2 0xFB0 JUMP JUMPDEST POP POP POP POP SWAP1 POP SWAP1 DUP2 ADD SWAP1 PUSH1 0x1F AND DUP1 ISZERO PUSH2 0xFF8 JUMPI DUP1 DUP3 SUB DUP1 MLOAD PUSH1 0x1 DUP4 PUSH1 0x20 SUB PUSH2 0x100 EXP SUB NOT AND DUP2 MSTORE PUSH1 0x20 ADD SWAP2 POP JUMPDEST POP SWAP3 POP POP POP PUSH1 0x40 MLOAD DUP1 SWAP2 SUB SWAP1 REVERT JUMPDEST POP DUP3 DUP5 SUB SWAP1 POP SWAP4 SWAP3 POP POP POP JUMP JUMPDEST PUSH1 0x0 DUP1 DUP3 EXTCODESIZE SWAP1 POP PUSH1 0x0 DUP2 GT SWAP2 POP POP SWAP2 SWAP1 POP JUMP JUMPDEST PUSH1 0x0 DUP4 SWAP1 POP DUP1 PUSH20 0xFFFFFFFFFFFFFFFFFFFFFFFFFFFFFFFFFFFFFFFF AND PUSH4 0xA4C0ED36 CALLER DUP6 DUP6 PUSH1 0x40 MLOAD DUP5 PUSH4 0xFFFFFFFF AND PUSH1 0xE0 SHL DUP2 MSTORE PUSH1 0x4 ADD DUP1 DUP5 PUSH20 0xFFFFFFFFFFFFFFFFFFFFFFFFFFFFFFFFFFFFFFFF AND DUP2 MSTORE PUSH1 0x20 ADD DUP4 DUP2 MSTORE PUSH1 0x20 ADD DUP1 PUSH1 0x20 ADD DUP3 DUP2 SUB DUP3 MSTORE DUP4 DUP2 DUP2 MLOAD DUP2 MSTORE PUSH1 0x20 ADD SWAP2 POP DUP1 MLOAD SWAP1 PUSH1 0x20 ADD SWAP1 DUP1 DUP4 DUP4 PUSH1 0x0 JUMPDEST DUP4 DUP2 LT ISZERO PUSH2 0x10BB JUMPI DUP1 DUP3 ADD MLOAD DUP2 DUP5 ADD MSTORE PUSH1 0x20 DUP2 ADD SWAP1 POP PUSH2 0x10A0 JUMP JUMPDEST POP POP POP POP SWAP1 POP SWAP1 DUP2 ADD SWAP1 PUSH1 0x1F AND DUP1 ISZERO PUSH2 0x10E8 JUMPI DUP1 DUP3 SUB DUP1 MLOAD PUSH1 0x1 DUP4 PUSH1 0x20 SUB PUSH2 0x100 EXP SUB NOT AND DUP2 MSTORE PUSH1 0x20 ADD SWAP2 POP JUMPDEST POP SWAP5 POP POP POP POP POP PUSH1 0x0 PUSH1 0x40 MLOAD DUP1 DUP4 SUB DUP2 PUSH1 0x0 DUP8 DUP1 EXTCODESIZE ISZERO DUP1 ISZERO PUSH2 0x1109 JUMPI PUSH1 0x0 DUP1 REVERT JUMPDEST POP GAS CALL ISZERO DUP1 ISZERO PUSH2 0x111D JUMPI RETURNDATASIZE PUSH1 0x0 DUP1 RETURNDATACOPY RETURNDATASIZE PUSH1 0x0 REVERT JUMPDEST POP POP POP POP POP POP POP POP JUMP JUMPDEST PUSH1 0x0 PUSH20 0xFFFFFFFFFFFFFFFFFFFFFFFFFFFFFFFFFFFFFFFF AND DUP4 PUSH20 0xFFFFFFFFFFFFFFFFFFFFFFFFFFFFFFFFFFFFFFFF AND EQ ISZERO PUSH2 0x11AD JUMPI PUSH1 0x40 MLOAD PUSH32 0x8C379A000000000000000000000000000000000000000000000000000000000 DUP2 MSTORE PUSH1 0x4 ADD DUP1 DUP1 PUSH1 0x20 ADD DUP3 DUP2 SUB DUP3 MSTORE PUSH1 0x24 DUP2 MSTORE PUSH1 0x20 ADD DUP1 PUSH2 0x16D1 PUSH1 0x24 SWAP2 CODECOPY PUSH1 0x40 ADD SWAP2 POP POP PUSH1 0x40 MLOAD DUP1 SWAP2 SUB SWAP1 REVERT JUMPDEST PUSH1 0x0 PUSH20 0xFFFFFFFFFFFFFFFFFFFFFFFFFFFFFFFFFFFFFFFF AND DUP3 PUSH20 0xFFFFFFFFFFFFFFFFFFFFFFFFFFFFFFFFFFFFFFFF AND EQ ISZERO PUSH2 0x1233 JUMPI PUSH1 0x40 MLOAD PUSH32 0x8C379A000000000000000000000000000000000000000000000000000000000 DUP2 MSTORE PUSH1 0x4 ADD DUP1 DUP1 PUSH1 0x20 ADD DUP3 DUP2 SUB DUP3 MSTORE PUSH1 0x22 DUP2 MSTORE PUSH1 0x20 ADD DUP1 PUSH2 0x1608 PUSH1 0x22 SWAP2 CODECOPY PUSH1 0x40 ADD SWAP2 POP POP PUSH1 0x40 MLOAD DUP1 SWAP2 SUB SWAP1 REVERT JUMPDEST DUP1 PUSH1 0x1 PUSH1 0x0 DUP6 PUSH20 0xFFFFFFFFFFFFFFFFFFFFFFFFFFFFFFFFFFFFFFFF AND PUSH20 0xFFFFFFFFFFFFFFFFFFFFFFFFFFFFFFFFFFFFFFFF AND DUP2 MSTORE PUSH1 0x20 ADD SWAP1 DUP2 MSTORE PUSH1 0x20 ADD PUSH1 0x0 KECCAK256 PUSH1 0x0 DUP5 PUSH20 0xFFFFFFFFFFFFFFFFFFFFFFFFFFFFFFFFFFFFFFFF AND PUSH20 0xFFFFFFFFFFFFFFFFFFFFFFFFFFFFFFFFFFFFFFFF AND DUP2 MSTORE PUSH1 0x20 ADD SWAP1 DUP2 MSTORE PUSH1 0x20 ADD PUSH1 0x0 KECCAK256 DUP2 SWAP1 SSTORE POP DUP2 PUSH20 0xFFFFFFFFFFFFFFFFFFFFFFFFFFFFFFFFFFFFFFFF AND DUP4 PUSH20 0xFFFFFFFFFFFFFFFFFFFFFFFFFFFFFFFFFFFFFFFF AND PUSH32 0x8C5BE1E5EBEC7D5BD14F71427D1E84F3DD0314C0F7B2291E5B200AC8C7C3B925 DUP4 PUSH1 0x40 MLOAD DUP1 DUP3 DUP2 MSTORE PUSH1 0x20 ADD SWAP2 POP POP PUSH1 0x40 MLOAD DUP1 SWAP2 SUB SWAP1 LOG3 POP POP POP JUMP JUMPDEST PUSH1 0x0 PUSH20 0xFFFFFFFFFFFFFFFFFFFFFFFFFFFFFFFFFFFFFFFF AND DUP4 PUSH20 0xFFFFFFFFFFFFFFFFFFFFFFFFFFFFFFFFFFFFFFFF AND EQ ISZERO PUSH2 0x13A4 JUMPI PUSH1 0x40 MLOAD PUSH32 0x8C379A000000000000000000000000000000000000000000000000000000000 DUP2 MSTORE PUSH1 0x4 ADD DUP1 DUP1 PUSH1 0x20 ADD DUP3 DUP2 SUB DUP3 MSTORE PUSH1 0x25 DUP2 MSTORE PUSH1 0x20 ADD DUP1 PUSH2 0x16AC PUSH1 0x25 SWAP2 CODECOPY PUSH1 0x40 ADD SWAP2 POP POP PUSH1 0x40 MLOAD DUP1 SWAP2 SUB SWAP1 REVERT JUMPDEST PUSH1 0x0 PUSH20 0xFFFFFFFFFFFFFFFFFFFFFFFFFFFFFFFFFFFFFFFF AND DUP3 PUSH20 0xFFFFFFFFFFFFFFFFFFFFFFFFFFFFFFFFFFFFFFFF AND EQ ISZERO PUSH2 0x142A JUMPI PUSH1 0x40 MLOAD PUSH32 0x8C379A000000000000000000000000000000000000000000000000000000000 DUP2 MSTORE PUSH1 0x4 ADD DUP1 DUP1 PUSH1 0x20 ADD DUP3 DUP2 SUB DUP3 MSTORE PUSH1 0x23 DUP2 MSTORE PUSH1 0x20 ADD DUP1 PUSH2 0x15E5 PUSH1 0x23 SWAP2 CODECOPY PUSH1 0x40 ADD SWAP2 POP POP PUSH1 0x40 MLOAD DUP1 SWAP2 SUB SWAP1 REVERT JUMPDEST PUSH2 0x1435 DUP4 DUP4 DUP4 PUSH2 0x15DF JUMP JUMPDEST PUSH2 0x14A0 DUP2 PUSH1 0x40 MLOAD DUP1 PUSH1 0x60 ADD PUSH1 0x40 MSTORE DUP1 PUSH1 0x26 DUP2 MSTORE PUSH1 0x20 ADD PUSH2 0x165E PUSH1 0x26 SWAP2 CODECOPY PUSH1 0x0 DUP1 DUP8 PUSH20 0xFFFFFFFFFFFFFFFFFFFFFFFFFFFFFFFFFFFFFFFF AND PUSH20 0xFFFFFFFFFFFFFFFFFFFFFFFFFFFFFFFFFFFFFFFF AND DUP2 MSTORE PUSH1 0x20 ADD SWAP1 DUP2 MSTORE PUSH1 0x20 ADD PUSH1 0x0 KECCAK256 SLOAD PUSH2 0xF59 SWAP1 SWAP3 SWAP2 SWAP1 PUSH4 0xFFFFFFFF AND JUMP JUMPDEST PUSH1 0x0 DUP1 DUP6 PUSH20 0xFFFFFFFFFFFFFFFFFFFFFFFFFFFFFFFFFFFFFFFF AND PUSH20 0xFFFFFFFFFFFFFFFFFFFFFFFFFFFFFFFFFFFFFFFF AND DUP2 MSTORE PUSH1 0x20 ADD SWAP1 DUP2 MSTORE PUSH1 0x20 ADD PUSH1 0x0 KECCAK256 DUP2 SWAP1 SSTORE POP PUSH2 0x1533 DUP2 PUSH1 0x0 DUP1 DUP6 PUSH20 0xFFFFFFFFFFFFFFFFFFFFFFFFFFFFFFFFFFFFFFFF AND PUSH20 0xFFFFFFFFFFFFFFFFFFFFFFFFFFFFFFFFFFFFFFFF AND DUP2 MSTORE PUSH1 0x20 ADD SWAP1 DUP2 MSTORE PUSH1 0x20 ADD PUSH1 0x0 KECCAK256 SLOAD PUSH2 0xD9B SWAP1 SWAP2 SWAP1 PUSH4 0xFFFFFFFF AND JUMP JUMPDEST PUSH1 0x0 DUP1 DUP5 PUSH20 0xFFFFFFFFFFFFFFFFFFFFFFFFFFFFFFFFFFFFFFFF AND PUSH20 0xFFFFFFFFFFFFFFFFFFFFFFFFFFFFFFFFFFFFFFFF AND DUP2 MSTORE PUSH1 0x20 ADD SWAP1 DUP2 MSTORE PUSH1 0x20 ADD PUSH1 0x0 KECCAK256 DUP2 SWAP1 SSTORE POP DUP2 PUSH20 0xFFFFFFFFFFFFFFFFFFFFFFFFFFFFFFFFFFFFFFFF AND DUP4 PUSH20 0xFFFFFFFFFFFFFFFFFFFFFFFFFFFFFFFFFFFFFFFF AND PUSH32 0xDDF252AD1BE2C89B69C2B068FC378DAA952BA7F163C4A11628F55A4DF523B3EF DUP4 PUSH1 0x40 MLOAD DUP1 DUP3 DUP2 MSTORE PUSH1 0x20 ADD SWAP2 POP POP PUSH1 0x40 MLOAD DUP1 SWAP2 SUB SWAP1 LOG3 POP POP POP JUMP JUMPDEST POP POP POP JUMP INVALID GASLIMIT MSTORE NUMBER ORIGIN ADDRESS GASPRICE KECCAK256 PUSH21 0x72616E7366657220746F20746865207A65726F2061 PUSH5 0x6472657373 GASLIMIT MSTORE NUMBER ORIGIN ADDRESS GASPRICE KECCAK256 PUSH2 0x7070 PUSH19 0x6F766520746F20746865207A65726F20616464 PUSH19 0x6573734C696E6B546F6B656E3A207472616E73 PUSH7 0x65722F61707072 PUSH16 0x766520746F207468697320636F6E7472 PUSH2 0x6374 KECCAK256 PUSH2 0x6464 PUSH19 0x65737345524332303A207472616E7366657220 PUSH2 0x6D6F PUSH22 0x6E7420657863656564732062616C616E636545524332 ADDRESS GASPRICE KECCAK256 PUSH21 0x72616E7366657220616D6F756E7420657863656564 PUSH20 0x20616C6C6F77616E636545524332303A20747261 PUSH15 0x736665722066726F6D20746865207A PUSH6 0x726F20616464 PUSH19 0x65737345524332303A20617070726F76652066 PUSH19 0x6F6D20746865207A65726F2061646472657373 GASLIMIT MSTORE NUMBER ORIGIN ADDRESS GASPRICE KECCAK256 PUSH5 0x6563726561 PUSH20 0x656420616C6C6F77616E63652062656C6F77207A PUSH6 0x726FA2646970 PUSH7 0x73582212204C9D CALL CALL 0xAC 0xBE DUP4 0x2D SWAP6 0xE7 0xB3 DUP12 PUSH9 0x5AE4E0F09F2C2F865B REVERT CHAINID 0xAC 0xFC 0xCD 0xBD 0xDC LOG4 PUSH11 0xBE64736F6C634300070600 CALLER "
				},
				"gasEstimates": {
					"creation": {
						"codeDepositCost": "1193400",
						"executionCost": "infinite",
						"totalCost": "infinite"
					},
					"external": {
						"allowance(address,address)": "1409",
						"approve(address,uint256)": "infinite",
						"balanceOf(address)": "1263",
						"decimals()": "1122",
						"decreaseAllowance(address,uint256)": "infinite",
						"decreaseApproval(address,uint256)": "infinite",
						"increaseAllowance(address,uint256)": "infinite",
						"increaseApproval(address,uint256)": "infinite",
						"name()": "infinite",
						"symbol()": "infinite",
						"totalSupply()": "1081",
						"transfer(address,uint256)": "infinite",
						"transferAndCall(address,uint256,bytes)": "infinite",
						"transferFrom(address,address,uint256)": "infinite",
						"typeAndVersion()": "infinite"
					},
					"internal": {
						"_approve(address,address,uint256)": "infinite",
						"_onCreate()": "infinite",
						"_transfer(address,address,uint256)": "infinite"
					}
				},
				"methodIdentifiers": {
					"allowance(address,address)": "dd62ed3e",
					"approve(address,uint256)": "095ea7b3",
					"balanceOf(address)": "70a08231",
					"decimals()": "313ce567",
					"decreaseAllowance(address,uint256)": "a457c2d7",
					"decreaseApproval(address,uint256)": "66188463",
					"increaseAllowance(address,uint256)": "39509351",
					"increaseApproval(address,uint256)": "d73dd623",
					"name()": "06fdde03",
					"symbol()": "95d89b41",
					"totalSupply()": "18160ddd",
					"transfer(address,uint256)": "a9059cbb",
					"transferAndCall(address,uint256,bytes)": "4000aea0",
					"transferFrom(address,address,uint256)": "23b872dd",
					"typeAndVersion()": "181f5a77"
				}
			},
			"storageLayout": {
				"storage": [
					{
						"astId": 340,
						"contract": "contracts/contract/LinkToken.sol:LinkToken",
						"label": "_balances",
						"offset": 0,
						"slot": "0",
						"type": "t_mapping(t_address,t_uint256)"
					},
					{
						"astId": 346,
						"contract": "contracts/contract/LinkToken.sol:LinkToken",
						"label": "_allowances",
						"offset": 0,
						"slot": "1",
						"type": "t_mapping(t_address,t_mapping(t_address,t_uint256))"
					},
					{
						"astId": 348,
						"contract": "contracts/contract/LinkToken.sol:LinkToken",
						"label": "_totalSupply",
						"offset": 0,
						"slot": "2",
						"type": "t_uint256"
					},
					{
						"astId": 350,
						"contract": "contracts/contract/LinkToken.sol:LinkToken",
						"label": "_name",
						"offset": 0,
						"slot": "3",
						"type": "t_string_storage"
					},
					{
						"astId": 352,
						"contract": "contracts/contract/LinkToken.sol:LinkToken",
						"label": "_symbol",
						"offset": 0,
						"slot": "4",
						"type": "t_string_storage"
					},
					{
						"astId": 354,
						"contract": "contracts/contract/LinkToken.sol:LinkToken",
						"label": "_decimals",
						"offset": 0,
						"slot": "5",
						"type": "t_uint8"
					}
				],
				"types": {
					"t_address": {
						"encoding": "inplace",
						"label": "address",
						"numberOfBytes": "20"
					},
					"t_mapping(t_address,t_mapping(t_address,t_uint256))": {
						"encoding": "mapping",
						"key": "t_address",
						"label": "mapping(address => mapping(address => uint256))",
						"numberOfBytes": "32",
						"value": "t_mapping(t_address,t_uint256)"
					},
					"t_mapping(t_address,t_uint256)": {
						"encoding": "mapping",
						"key": "t_address",
						"label": "mapping(address => uint256)",
						"numberOfBytes": "32",
						"value": "t_uint256"
					},
					"t_string_storage": {
						"encoding": "bytes",
						"label": "string",
						"numberOfBytes": "32"
					},
					"t_uint256": {
						"encoding": "inplace",
						"label": "uint256",
						"numberOfBytes": "32"
					},
					"t_uint8": {
						"encoding": "inplace",
						"label": "uint8",
						"numberOfBytes": "1"
					}
				}
			},
			"userdoc": {
				"kind": "user",
				"methods": {
					"typeAndVersion()": {
						"notice": "versions: - LinkToken 0.0.3: added versioning, update name - LinkToken 0.0.2: upgraded to solc 0.6 - LinkToken 0.0.1: initial release solc 0.4"
					}
				},
				"version": 1
			}
		}
	}
}